:020000040800F2
:100000001013002001010008FD1F0008FF1F000859
:1000100003200008072000080B2000080000000053
:100020000000000000000000000000000F20000899
:10003000112000080000000013200008152000080F
:100040001B0100081B0100081B0100081B01000820
:100050001B0100081B0100081B0100081B01000810
:100060001B0100081B010008192000081B010008E3
:100070001B0100081B0100081B0100081B010008F0
:100080001B0100081B0100081B0100081B010008E0
:100090001B0100081B0100081B0100087520000857
:1000A0001B0100081B0100081B0100081B010008C0
:1000B0001B0100081B0100081B0100081B010008B0
:1000C0001B0100081B0100081B0100081B010008A0
:1000D0001B0100087720000807210008E52100081F
:1000E000172000081B0100081B010008DFF80CD0D6
:1000F00005F02EFB00480047E11F00081013002008
:100100000648804706480047FEE7FEE7FEE7FEE7B1
:10011000FEE7FEE7FEE7FEE7FEE7FEE7DF1E00087C
:10012000ED00000831490143314A1160704770B554
:10013000002100230F22C47804B32D4C246804F45A
:10014000E064C4F5E064210AC1F10403CA404478C4
:1001500004FA03F18478144021430901254C067800
:10016000A155047804F01F050124AC4005786D11F9
:10017000AD0005F1E025C5F8004109E0047804F080
:100180001F050124AC401C4D0678761145F8264029
:1001900070BD1A4A0A400243154B1B1F1A60704774
:1001A00039B1134A121D12680243114B1B1D1A600C
:1001B00006E00F4A121D126882430D4B1B1D1A6088
:1001C0007047042808D14FF0E021096941F004018B
:1001D0004FF0E022116107E04FF0E021096921F0C2
:1001E00004014FF0E0221161704700000000FA05A1
:1001F0000CED00E000E400E080E100E080FFFF1F84
:1002000010B50446FA48844208D10121401501F096
:10021000C1F80021601501F0BDF817E0F5488442EF
:1002200008D10121001501F0B5F80021201501F0D9
:10023000B1F80BE0F048844208D10121C80301F075
:10024000A9F800214FF4004001F0A4F810BD30B52A
:100250000246002000235068E84C20400D790C68CD
:1002600044EA0524204350609068E54C2040D1E9E1
:1002700002542C434D7944EA450420439060D06AEF
:1002800020F470000C7C641EE4B2234340EA035067
:10029000D06230BD00210160017141718160C16097
:1002A00001210174704721B1826842F0010282602D
:1002B00003E0826822F001028260704721B1826807
:1002C00042F48072826003E0826822F4807282606D
:1002D000704710B50023CBB21AB144681C43446088
:1002E00002E044689C43446010BD816841F008010D
:1002F00081607047014600208A6802F008020AB156
:10030000012000E000207047816841F00401816015
:100310007047014600208A6802F004020AB10120F9
:1003200000E00020704721B1826842F4A0028260A0
:1003300003E0826822F4A002826070470146002038
:100340008A6802F480020AB1012000E000207047B0
:1003500010B50A4600210023416821F46041531E74
:1003600041EA4331416010BD21B1426842F400626C
:10037000426003E0426822F4006242607047F0B5D8
:1003800004460D4600200021092D11DDE068A5F18D
:100390000A0606EB4607072606FA07F18843A5F189
:1003A0000A0606EB460603FA06F10843E0600CE095
:1003B000206905EB4507072606FA07F1884305EB98
:1003C000450603FA06F108432061072A0FDA606B3D
:1003D000561E06EB86071F2606FA07F18843561EAF
:1003E00006EB860605FA06F10843606322E00D2A53
:1003F0000FDA206BD61F06EB86071F2606FA07F1D9
:100400008843D61F06EB860605FA06F108432063EB
:1004100010E0E06AA2F10D0606EB86071F2606FA39
:1004200007F18843A2F10D0606EB860605FA06F1F0
:100430000843E062F0BD21B1826842F4801282601C
:1004400003E0826822F48012826070470146C86C23
:1004500080B2704766484C300068704721B14268EE
:1004600042F48062426003E0426822F480624260AB
:10047000704721B1426842F48052426003E0426812
:1004800022F48052426070470A460021816821F4BC
:10049000E04111438160704721B1826842F400421B
:1004A000826003E0826822F400428260704721B1DA
:1004B000826842F40212826003E0826822F402122F
:1004C00082607047014600208A6802F400120AB177
:1004D000012000E000207047F0B5044615460020DA
:1004E00000220026092911DDE068A1F10A0707EBC7
:1004F000470C072707FA0CF29043A1F10A0707EB14
:10050000470703FA07F21043E0600CE0206901EBB3
:10051000410C072707FA0CF2904301EB410703FA5D
:1005200007F210432061A06BC0F30156EF1C06F1E7
:10053000010CA7EB0C0707EB870C1F2707FA0CF23F
:100540009043EF1C06F1010CA7EB0C0707EB8707A4
:1005500001FA07F21043A063F0BD10B50A4600216E
:100560000023816B21F44011531E41EA0351816342
:1005700010BD08B5002300930090009B0B4400932E
:10058000009B1A6008BD08B502460020009000924A
:1005900001F12800009B184400900098006880B288
:1005A00008BD0A4600214168164B194011434160BD
:1005B00070474162826270470A460021416821F01B
:1005C0001F0111434160704740B109490831096872
:1005D00041F40001064A0832116007E0044908317D
:1005E000096821F40001024A0832116070470000D6
:1005F0000024014000280140003C0140FFFEF0FFC4
:10060000FDF7F1FFFFFD3FFF0246002013680B409E
:100610000BB1012000E000207047CA430260704720
:1006200070B502460020002300240B125568CEB29C
:1006300005EA060415681D4015B10CB1012000E063
:10064000002070BD00220A12D343036070470000EF
:10065000002044490860091D0860091D0860091D43
:10066000086041483F4914310860704700213D4906
:100670008279002A3AD00A46126803689A430B46E8
:100680001A600A1D126803689A430B1D1A600279EA
:1006900011440A6803681A430A60324A0832126831
:1006A00003689A432F4B08331A601A1D12680368B7
:1006B0009A432C4B0C331A604279102A0ED11A1F20
:1006C000126803681A43274B08331A601A1D126810
:1006D00003681A43234B0C331A600DE02149427919
:1006E00011440A6803681A430A6005E0027911445C
:1006F0000A6803689A430A6070470021016001712B
:100700000C2141710021817170471649103109682F
:100710000143144A10321160704701460020114A0B
:10072000143212680A400AB1012000E0002070472C
:100730000C49143108607047014600200022094B23
:100740001B6803EA0102074B14331B680B4013B10B
:100750000AB1012000E0002070470249143108600E
:100760007047000000040140FFFF0F000146002019
:10077000FE4A106800F03800084310607047FB49DB
:10078000096821F00801F94A11601146096801431E
:1007900011607047F549096821F01001F34A1160B2
:1007A00011460968014311607047F148EF494860FC
:1007B000F04848607047EE48EC494860ED484860B2
:1007C0007047EA48006940F08000E84908617047D6
:1007D000E648006940F08000E44908617047042061
:1007E000E249C96801F0010109B101200EE0DF49C9
:1007F000C96801F0040109B1022007E0DB49C968BA
:1008000001F0100109B1032000E00420704700B599
:1008100002460423FFF7E3FF034603E0FFF7DFFF91
:100820000346521E012B01D1002AF7D102B905233C
:10083000184600BD30B5044604254FF43020FFF7BC
:10084000E6FF0546042D17D1C848006940F00200B4
:10085000C649086108464461006940F040000861EB
:100860004FF43020FFF7D3FF0546C048006941F63A
:10087000FD710840BD490861284630BD10B504240B
:100880004FF43020FFF7C3FF0446042C16D1B748BD
:10089000006940F00400B54908610846006940F06D
:1008A000400008614FF43020FFF7B1FF0446AF4825
:1008B000006941F6FB710840AC490861204610BD53
:1008C00000B502460423FFF78AFF034603E0FFF763
:1008D00086FF0346521E012B01D1002AF7D102B92F
:1008E0000523184600BD10B504244FF43020FFF74F
:1008F000E7FF0446042C16D19C48006940F0040030
:100900009A4908610846006940F0400008614FF4C8
:100910003020FFF7D5FF04469448006941F6FB718B
:10092000084092490861204610BD00208F49C969DE
:1009300001F0020109B1012000E00020704730B54C
:10094000A5250424FFF7F1FF00B100254FF4302066
:10095000FFF75DFF0446042C3AD18548834988603F
:10096000844888600846006940F020000861084615
:10097000006940F0400008614FF43020FFF747FF66
:100980000446042C1BD17948006941F6DF71084008
:10099000764908610846006940F010000861764811
:1009A0000580E002FFF733FF0446052C10D06F48A6
:1009B000006941F6EF7108406C49086108E0052CB8
:1009C00006D06A48006941F6EF710840674908613E
:1009D000204630BD78B506460C4604250020009020
:1009E000E802FFF714FF0546042D24D15F48006993
:1009F00040F001005D4908613480E802FFF707FF1D
:100A00000546042D10D1B01C0090200C00990880E0
:100A1000E802FFF7FCFE05465448006941F6FE7106
:100A200008405249086106E05048006941F6FE71ED
:100A300008404E490861284678BD70B504460D4609
:100A40000426F002FFF7E3FE0646042E11D14748C4
:100A5000006940F00100454908612580F002FFF778
:100A6000D6FE06464148006941F6FE7108403F49FE
:100A70000861304670BD70B505460E460424E0029C
:100A8000FFF7C5FE0446042C17D139483749886062
:100A9000384888600846006940F0100008612E80E0
:100AA000E002FFF7B4FE0446052C06D02F4800698B
:100AB00041F6EF7108402D490861204670BD2DE9CF
:100AC000F04304464FF6FF763746B046B14604255C
:100AD000E443E6B2C4F30727C4F307484FEA1469B6
:100AE000E802FFF794FE0546042D49D120481F492E
:100AF0008860204888600846006940F0100008615E
:100B0000FF2E06D01C4808300680E802FFF77FFE63
:100B10000546042D08D1FF2F06D017480A3007805C
:100B2000E802FFF774FE0546042D0AD1B8F1FF0F65
:100B300007D011480C30A0F80080E802FFF767FEEC
:100B40000546042D0AD1B9F1FF0F07D00A480E302F
:100B5000A0F80090E802FFF75AFE0546052D0FD0D9
:100B60000248006941F6EF71084007E000200240AA
:100B700023016745AB89EFCD00F8FF1F6649086187
:100B80002846BDE8F08330B5054604244FF43020F4
:100B9000FFF73DFE0446042C41D160485E49886061
:100BA0005F4888600846006940F0200008610846F8
:100BB000006940F0400008614FF43020FFF727FE45
:100BC0000446042C22D15448006941F6DF710840E4
:100BD000514908610846006940F0100008611DB1E4
:100BE00000205049088002E0A5204E4908804FF4BB
:100BF0003020FFF70CFE0446052C10D04648006953
:100C000041F6EF7108404449086108E0052C06D020
:100C10004148006941F6DF7108403F4908612046BC
:100C200030BDF0B505460E46174604243B483A4908
:100C300088603B488860E002FFF7E9FD0446042C29
:100C400019D13548006940F010003349086147F078
:100C5000F800304328433349891C0880E002FFF73D
:100C6000D6FD0446052C06D02B48006941F6EF71ED
:100C70000840294908612046F0BD2748C06980081E
:100C800070472548006A704700202349096801F031
:100C9000200109B1012000E00020704729B11E4A5F
:100CA000126902431C4B1A6104E01B4A1269824319
:100CB000194B1A61704701460020012908D1164AD4
:100CC000D26902F001020AB1012008E0002006E02A
:100CD000114AD2680A400AB1012000E000207047A2
:100CE0000D49C860704704200B49C96801F0010133
:100CF00009B101200EE00849C96801F0040109B1F9
:100D0000022007E00449C96801F0100109B103207D
:100D100000E00420704700000020024023016745E6
:100D2000AB89EFCD00F8FF1F10B50446CC488442D4
:100D300008D10121042000F02DFB0021042000F047
:100D400029FB46E0C748844208D10121082000F071
:100D500021FB0021082000F01DFB3AE0C24884423C
:100D600008D10121102000F015FB0021102000F017
:100D700011FB2EE0BD48844208D10121202000F063
:100D800009FB0021202000F005FB22E0B848844246
:100D900008D10121402000F0FDFA0021402000F0A0
:100DA000F9FA16E0B348844208D10121802000F00E
:100DB000F1FA0021802000F0EDFA0AE0AE4884420A
:100DC00007D10121801500F0E5FA0021A01500F0FF
:100DD000E1FA10BD10B50121084600F0DBFA002150
:100DE000012000F0D7FA10BD2DE9F04102460025A0
:100DF0000026002000230024002791F803C00CF0F7
:100E00000F0591F803C00CF0100CBCF1000F03D0DB
:100E100091F802C04CEA050591F800C0BCF1000F42
:100E200031D0146800202BE04FF0010C0CFA00F3D5
:100E3000B1F800C00CEA03069E4220D183004FF0B7
:100E40000F0C0CFA03F7BC4305FA03FC4CEA04044C
:100E500091F803C0BCF1280F06D14FF0010C0CFA39
:100E600000FCC2F814C00AE091F803C0BCF1480FBE
:100E700005D14FF0010C0CFA00FCC2F810C0401C68
:100E80000828D1D31460B1F800C0BCF1FF0F34DDE5
:100E9000546800202EE000F1080C4FF0010808FA19
:100EA0000CF3B1F800C00CEA03069E4221D1830086
:100EB0004FF00F0C0CFA03F7BC4305FA03FC4CEAA5
:100EC000040491F803C0BCF1280F05D100F1080C0F
:100ED00008FA0CF8C2F8148091F803C0BCF1480F6E
:100EE00007D100F1080C4FF0010808FA0CF8C2F81D
:100EF0001080401C0828CED35460BDE8F0814FF626
:100F0000FF710180022181700421C1707047024687
:100F1000002093680B400BB1012000E000207047D7
:100F20000146886880B2704702460020D3680B40B3
:100F30000BB1012000E0002070470146C86880B274
:100F4000704701617047416170470AB1016100E07B
:100F500041617047C16070474FF480320A4382613B
:100F60008161826182698269704702460020434B39
:100F700018684FF68073184040EA021008433F4B50
:100F8000186070473E49C8617047F0B50A460023B3
:100F900000240021002500F00046B6F1004F02D1E8
:100FA000364EF16901E0354E7168C0F3034583B2F6
:100FB00000F44016B6F5401F08D121F070612F4EA5
:100FC000766826F070662D4F7E6012E000F4801681
:100FD000B6F5801F06D1032606FA05F4A14341F0B9
:100FE000706106E0460D360103FA06F6B14341F0A2
:100FF000706122B1460D360103FA06F6314300F066
:101000000046B6F1004F02D11C4EF16101E01B4ECB
:101010007160F0BD30B500228B071C0F0F2303FA5F
:1010200004F2164B08338C1053F824309343134CBE
:1010300008348D1044F8253023468C1053F82430A2
:101040008C07240F00FA04F423430C4C08348D1051
:1010500044F8253030BD0A49DC3108607047000093
:1010600000080140000C0140001001400014014044
:1010700000180140001C0140002001400000014018
:1010800000002042DF48006840F00100DD490860B0
:1010900008464068DC490840DA494860084600686C
:1010A000DA490840D74908600846006820F48020E3
:1010B00008600846406820F4FE0048604FF41F00B6
:1010C00088607047CF49096821F48031CD4A1160AA
:1010D0001146096821F480211160B0F5803F03D0EA
:1010E000B0F5802F0ED106E0C649096841F4803181
:1010F000C44A116007E0C349096841F4A021C14A0C
:10110000116000E000BF00BF704710B5014600222B
:10111000002300204A11012A02D1BA4C236806E0BC
:10112000022A02D1B74C236A01E0B64C636A01F08F
:101130001F02012494401C400CB1012000E000205B
:1011400010BD38B5002000900024002500BF3120DC
:10115000FFF7DBFF05460098401C00900098B0F5B3
:10116000A06F01D0002DF2D03120FFF7CEFF08B1E3
:10117000012400E00024204638BD01460020A14A99
:10118000106820F0F80040EAC10010607047A049E4
:1011900008607047024600209A4B586820F47C1083
:1011A00042EA01031843974B586070479849086614
:1011B000704701460020934A506820F0030008431E
:1011C000506070478F48406800F00C00704701463F
:1011D00000208C4A506820F0F000084350607047AF
:1011E00001460020874A506820F4E06008435060C0
:1011F000704701460020834A506820F4605040EA5E
:10120000C1005060704729B17E4A527A02437D4B3B
:101210005A7204E07B4A527A82437A4B5A72704780
:101220007B49D8310860704701460020754A5068F4
:1012300020F440400843506070470021714A20323A
:101240001170704A82F82010012802D004280AD1B7
:1012500004E001216B4A2032117005E00521694A42
:101260002032117000E000BF00BF7047694908607C
:1012700070476449096A0143624A116270476549CF
:1012800044390860704730B5002100220024002353
:101290005C4D6D6805F00C0121B1042905D00829C9
:1012A00023D105E05C4D056022E05B4D05601FE049
:1012B000544D6D6805F47012524D6D6805F480341C
:1012C000022505EB92421CB9544D554305600BE0D5
:1012D0004C4D6D6805F400351DB1504D554305600A
:1012E00002E04D4D5543056002E04B4D056000BFE7
:1012F00000BF444D6D6805F0F0010909484D6B5C75
:101300000568DD4045603F4D6D6805F4E061090A00
:10131000434D6B5C4568DD4085603A4D6D6805F472
:101320006051C90A3E4D6B5C4568DD40C560354D76
:101330006D6805F44041890B3A4D6B5CC568B5FB9F
:10134000F3F5056130BD29B12E4A526902432D4B98
:101350005A6104E02B4A526982432A4B5A61704712
:1013600029B1284A92690243264B9A6104E0254A32
:1013700092698243234B9A61704729B1214AD2690D
:101380000243204BDA6104E01E4AD26982431D4BBE
:10139000DA61704729B11B4AD2680243194BDA60FF
:1013A00004E0184AD2688243164BDA60704729B1CC
:1013B000144A12690243134B1A6104E0114A12697C
:1013C0008243104B1A6170471249403908607047D8
:1013D0000F49C86470470B49C87170470948406A93
:1013E00040F0807007494862704701460020054A76
:1013F00092680A400AB1012000E0002070470149CC
:1014000088727047001002400000FFF8FFFFF6FEF0
:10141000000042428004424200127A0000093D006E
:10142000000000201000002010B50446F748844258
:1014300009D101218803FFF7ADFF00214FF480405F
:10144000FFF7A8FF32E0F248844209D101214804A5
:10145000FFF7ADFF00214FF40030FFF7A8FF25E0B4
:10146000EC48844209D101218804FFF7A0FF002144
:101470004FF48020FFF79BFF18E0E748844209D132
:101480000121C804FFF793FF00214FF40020FFF76C
:101490008EFF0BE0E148844208D101210805FFF7E7
:1014A00086FF00214FF48010FFF781FF10BD2DE96A
:1014B000F04786B005460E460024A24600BFA1466E
:1014C0000027B08900B100BF2F462C8A4CF6FF7070
:1014D0000440F08804432C82AC894EF6F31004409B
:1014E000B08831890843718908430443AC81AC8AD0
:1014F0004FF6FF400440B0890443AC8201A8FFF7D7
:10150000C2FEC248874202D1DDF810A001E0DDF83A
:101510000CA0A88900F4004040B10AEBCA0000EB1F
:101520000A1031684900B0FBF1F807E00AEBCA0085
:1015300000EB0A1031688900B0FBF1F86420B8FBB9
:10154000F0F004012009642101FB1089A88900F44E
:10155000004040B1322000EBC900B0FBF1F000F0D8
:101560000700044308E0322000EB09106421B0FBBF
:10157000F1F000F00F0004432C8106B0BDE8F087C5
:101580004FF41651016000218180C18001810C213E
:10159000418100218181704710B502460020108AE8
:1015A0004FF2FF0318400B884C8823438C88234359
:1015B000CC8823431843108210BD00210180418054
:1015C0008180C180704721B1828942F400528281BA
:1015D00004E082894DF6FF731A4082817047F0B5AE
:1015E0000346002400260025002040F66A17B94271
:1015F00000D100BF1846C1F3421401F01F060127B5
:1016000007FA06F5012C01D10C3004E0022C01D1BF
:10161000103000E014301AB107682F43076002E071
:101620000768AF430760F0BD1AB1838A0B4383821A
:1016300002E0838A8B4383827047028A4FF6F073FD
:101640001A400282028A0A430282704782894FF25C
:10165000FF731A40828182890A438281704721B1D7
:10166000828942F00202828104E082894FF6FD7392
:101670001A4082817047028A4FF6DF731A40028255
:10168000028A0A430282704721B1028A42F48042F0
:10169000028204E0028A4BF6FF731A40028270470E
:1016A00002460020B1F5007F00D100BF13880B4037
:1016B0000BB1012000E00020704770B504460D46D4
:1016C000574EC5F30800A08000E0761E802120461A
:1016D000FFF7E6FF08B9002EF7D170BD10B504463C
:1016E00000BF20212046FFF7DBFF0028F9D0A088AB
:1016F000C0F3080010BD818941F00101818170476C
:10170000028BD2B20283028B42EA0122028370472B
:10171000028B02F47F420283028B0A4302837047EA
:1017200021B1828A42F02002828204E0828A4FF64E
:10173000DF731A408282704721B1828A42F0100220
:10174000828204E0828A4FF6EF731A4082827047E9
:1017500021B1828A42F00802828204E0828A4FF636
:10176000F7731A408282704721B1828942F40042A5
:10177000828103E08289C2F30E028281704721B127
:10178000828A42F40062828204E0828A4FF2FF730E
:101790001A4082827047828A4FF6FB731A40828217
:1017A000828A0A438282704721B1828A42F0020211
:1017B000828204E0828A4FF6FD731A40828270476B
:1017C00001F40072B2F5007F00D100BFCA4302806D
:1017D000704770B50246002400230025002040F623
:1017E0006A16B14200D100BFC1F3421501F01F03D8
:1017F000012606FA03F3012D02D19689334013E046
:10180000022D0FD1168A33400EE00000003801404F
:101810000044004000480040004C004000500040A0
:10182000FFFF4F00968A33400C12012606FA04F49B
:101830001688344013B10CB1012000E0002070BDC7
:1018400010B50022002340F66A14A14200D100BF67
:101850000A1201249440A3B2DC43048010BD0000AE
:1018600001684FF6FE721140016000210160416085
:101870008160C1608D49884208D18C490839496826
:1018800041F00F01894A083A51608AE087491431D2
:10189000884208D185490839496841F0F001834AF6
:1018A000083A51607DE081492831884208D17F495A
:1018B0000839496841F470617C4A083A516070E027
:1018C0007A493C31884208D178490839496841F45D
:1018D0007041764A083A516063E074495031884259
:1018E00008D172490839496841F470216F4A083AB1
:1018F000516056E06D496431884208D16B4908391E
:10190000496841F47001694A083A516049E0674901
:101910007831884208D165490839496841F07061D9
:10192000624A083A51603CE06149884206D1011F91
:10193000096841F00F01021F116032E05C49143167
:10194000884208D15A49091F096841F0F001584AF4
:10195000121F116025E056492831884208D15449A8
:10196000091F096841F47061514A121F116018E0A3
:101970004F493C31884208D14D49091F096841F45B
:1019800070414B4A121F11600BE0494950318842A7
:1019900007D14749091F096841F47021444A121FC1
:1019A0001160704710B50022026847F6F0739A4341
:1019B0000C6A8B6823430C6923434C6923438C696D
:1019C0002343CC6923434C6A23438C6A23431A4341
:1019D0000260CB6843600B6883604B68C36010BDD6
:1019E0000021016041608160C160016141618161EC
:1019F000C161016241628162704721B1026842F0B7
:101A00000102026004E002684FF6FE731A400260B1
:101A100070471AB103680B43036002E003688B430D
:101A200003607047416070470146486880B2704764
:101A300001460020002201F080531BB11C4B083BE3
:101A40001A6802E0194B083B1A6802EA01030BB15D
:101A5000012000E00020704700F0805119B11449C6
:101A6000091F086002E011490839486070470146C3
:101A70000020002201F080531BB10D4B083B1A6877
:101A800002E00A4B083B1A6802EA01030BB101208D
:101A900000E00020704700F0805119B10449091F8F
:101AA000086002E0014908394860704708000240B8
:101AB000080402400E49086070470D4948607047AD
:101AC0000B49886070474AF6AA20094908607047A8
:101AD0004CF6CC4006490860704701460020044A95
:101AE000D2680A400AB1012000E0002070470000DF
:101AF0000030004010B50446BE48844208D10121A0
:101B00008014FFF747FC0021A014FFF743FC16E008
:101B1000B948844208D101210014FFF748FC002194
:101B20002014FFF744FC0AE0B448844207D10121A5
:101B3000C013FFF73CFC0021E013FFF738FC10BD99
:101B400010B50022028802F441520B884C882343CE
:101B50008C882343CC8823430C8923434C8923431B
:101B60008C892343CC8923431A430280838B4FF211
:101B7000FF74234083830B8A038210BD2DE9F04F4D
:101B800085B005460C464FF0000902274FF00008CB
:101B90004FF0010B0026B246A88B4FF240010840DF
:101BA000A88302202884B5F81C90A068022801D1DF
:101BB00000BF38E0A08810B94FF0010B01E04FF0F2
:101BC000020B8D48854200D100E000BF6846FFF758
:101BD0005AFBDDF800A0E088B0F5007F0AD14FEA9B
:101BE0001A2000EB80004000A168B0FBF1F0401D1E
:101BF00086B20BE04FEA4B10BAFBF0F000EB80002E
:101C00004000A168B0FBF1F0401D86B20A20B6FB8F
:101C1000F0F606F00108A6EB0800C0F34F074FF6F8
:101C2000FF7000EA0828022F01DBFF2F02DD0227E8
:101C30004FF00008E08840EA080038432884A08874
:101C4000A1890843618808432188084340F4006063
:101C500040EA0909A5F81C9005B0BDE8F08F002105
:101C6000018041808180C180018141818181C18168
:101C70000721018270470021018041808180C1805D
:101C80000221816000218181704721B1028842F0E8
:101C90004002028004E002884FF6BF731A400280BF
:101CA000704721B1828B42F48062828304E0828B90
:101CB0004FF6FF331A408283704730B5002400236B
:101CC0000C110125A540ABB21AB185881D43858052
:101CD00002E085889D43858030BD1AB183880B431F
:101CE000838002E083888B438380704781817047C3
:101CF0000146888970474FF6FF62914204D00288FE
:101D000042F48072028004E002884FF6FF631A40BA
:101D10000280704721B1828842F00402828004E090
:101D200082884FF6FB731A408280704702884FF218
:101D3000FF731A40028002880A43028070470188BC
:101D400041F480510180704721B1028842F4005271
:101D5000028004E002884DF6FF731A40028070474B
:101D600002460020012901D0108B00E0908A7047C4
:101D70000146088A7047B1F5804F04D1028842F4C9
:101D80008042028004E002884BF6FF731A40028012
:101D900070470246002013890B400BB1012000E080
:101DA00000207047CA4302817047F0B50246002008
:101DB00000240023002501F00F070126BE40B4B225
:101DC0000B1101269E40B3B2968806EA03051689D8
:101DD000264016B10DB1012000E00020F0BD10B585
:101DE000002201F00F040123A3409AB2D3430381E0
:101DF00010BD00000030014000380040003C0040B1
:101E00000CB50020019000906C48006840F48030D0
:101E10006A49086000BF6948006800F4003000901B
:101E20000198401C0190009818B90198B0F5A06F76
:101E3000F1D16248006800F4003010B10120009038
:101E400001E0002000900098012843D15C48006820
:101E500040F010005A4908600846006820F003006E
:101E600008600846006840F0020008605348406877
:101E7000524948600846406848600846406840F457
:101E8000806048600846406820F47C10486008463E
:101E9000406840F4E81048600846006840F08070F0
:101EA000086000BF4548006800F000700028F9D0C5
:101EB0004248406820F003004049486008464068B6
:101EC00040F00200486000BF3C48406800F00C0051
:101ED0000828F9D10CBD10B5FFF792FF10BD10B561
:101EE0003648006840F00100344908600846406800
:101EF0003449084031494860084600683249084082
:101F00002E4908600846006820F4802008600846D2
:101F1000406820F4FE0048604FF41F008860FFF71F
:101F2000DAFF4FF000602949086010BD10B50021AC
:101F300000200022214B5B6803F00C0121B1042931
:101F400006D0082928D107E0214B224C236027E046
:101F50001F4B204C236023E0184B5B6803F4701088
:101F6000164B5B6803F48032022303EB904022B9E6
:101F7000194B4343174C23600DE0104B5B6803F48F
:101F8000003323B1144B4343124C236003E0104B46
:101F90004343104C236003E00D4B0E4C236000BF05
:101FA00000BF064B5B68C3F303130C4CE15C094BA9
:101FB0001B68CB40074C236010BD0000001002409E
:101FC000002002400000FFF8FFFFF6FE08ED00E0F1
:101FD00000127A001400002000093D0018000020C3
:101FE00000F0F8FC00200449087000F094FC01E0C7
:101FF00000F079FDFCE7000028000020704700BFDA
:10200000FEE700BFFEE700BFFEE700BFFEE7704748
:10201000704770477047704710B54FF4006000F08C
:1020200022FEA84803F0B9F9A648C07800F00800DD
:1020300020B114214FF4006000F0EDFDA148C078FC
:1020400000F0100028B132214FF4805000F0E3FD81
:1020500009E09C48C07800F0200020B114214FF422
:10206000006000F0D8FD974803F097F91020FEF7C4
:1020700074FB10BD704710B540F225519248FFF730
:10208000A8FBC8B100209149087003214FF480607B
:1020900000F0C1FD8C48FFF721FB8D498D4A127875
:1020A00088548C480078401C8A49087040F22551B9
:1020B0008548FFF7C5FB25E040F227718248FFF70E
:1020C00088FB01281ED1844802780078401C824B8E
:1020D00018708248815C7C48FFF7EFFA7E480078F0
:1020E0007F49097888420DD1002240F22771764855
:1020F000FFF775FA002078490870794908700120C7
:102100007849087010BD10B540F225517648FFF7A8
:1021100060FBC8B10020754908707348FFF7DEFA0C
:10212000C1B27348734A1278815472480078401CD7
:102130007049087040F225516B48FFF781FB1E2162
:10214000042000F068FD4CE040F227716648FFF77C
:1021500040FB38B3684802780078401C664B187022
:102160006648815C6048FFF7A8FA40F225515E4856
:10217000FFF766FB6048007861490978884230DBE8
:10218000002240F227715848FFF729FA40F22771E0
:102190005548FFF755FB012240F226615248FFF7F0
:1021A0001EFA1EE040F226614F48FFF712FBC0B155
:1021B000002240F226614C48FFF711FA40F22661F6
:1021C0004948FFF73DFB02214E48FEF7BCFE0020C8
:1021D000494908704A49087001204B490870434931
:1021E000087010BD10B540F225514848FFF7F1FACC
:1021F000D0B10020464908704448FFF76FFAC1B2D9
:102200004448454A1278815443480078401C42496A
:10221000087040F225513D48FFF712FB03214FF4AF
:10222000803000F0F8FC4CE040F227713748FFF7AF
:10223000D0FA012827D1394802780078401C374B62
:1022400018703748815C3148FFF737FA40F2255162
:102250002E48FFF7F5FA314800783249097888426C
:102260002FDB002240F227712848FFF7B8F940F22F
:1022700027712648FFF7E4FA012240F2266123483D
:10228000FFF7ADF91DE040F226612048FFF7A1FA03
:10229000B8B1002240F226611C48FFF7A0F940F2D5
:1022A00026611A48FFF7CCFA4FF400411548FEF7B3
:1022B0004AFE0020194908701A49087001201A497D
:1022C000087010BD34060020003801402C000020AA
:1022D000B403002032000020380000203405002024
:1022E000370000202F000020004400402B00002079
:1022F000340300203100002036000020B404002008
:1023000035000020000801402E0000200048004059
:102310002A000020B40200203000002034000020F9
:1023200034040020330000202D00002010B5FEF7FB
:10233000A9FE4FF48030FEF7C5FEFEF702FFFE490E
:10234000087008460078012826D10020FEF73FFFDC
:102350000020FEF74EFF4FF48060FEF741FF0220A1
:10236000FEF704FA1020FEF715FA4FF4E0114FF4CF
:102370008030FEF70FFF0120FEF718FF00BF392065
:10238000FEF7C3FE0028FAD00220FEF712FF00BFBE
:10239000FEF718FF0828FBD14FF44040FEF744FF3A
:1023A00001210846FEF7DCFF10BD08B501213D20E4
:1023B000FEF7D6FF0121E148FEF7E7FD0121E048E5
:1023C000FEF7E3FD4FF48050ADF8000010208DF8CB
:1023D000030003208DF802006946DA48FEF704FD89
:1023E0002020ADF8000010208DF8030003208DF8A8
:1023F00002006946D348FEF7F7FC0120ADF8000063
:1024000048208DF803006946CF48FEF7EDFC042014
:10241000ADF800006946CB48FEF7E6FC4FF470606B
:10242000ADF800006946C948FEF7DEFC0121C84846
:10243000FEF7ABFDC748406820F02000C549486062
:102440000420ADF8000048208DF803006946C2481A
:10245000FEF7CAFC7820ADF8000048208DF8030094
:102460006946BA48FEF7C0FC0820ADF8000010200D
:102470008DF8030003208DF802006946B148FEF78D
:10248000B3FC0821AF48FEF75CFD4FF4E040ADF827
:10249000000010208DF8030003208DF8020069462B
:1024A000AA48FEF7A1FC4FF48051A848FEF749FD69
:1024B0004FF40051A548FEF744FD4FF48041A34876
:1024C000FEF73FFD0320ADF8000000208DF803006B
:1024D00069469C48FEF788FC0320ADF80000002008
:1024E0008DF8030069469948FEF77EFC1020ADF890
:1024F00000008DF8030003208DF802006946924821
:10250000FEF772FC10219048FEF71BFD1020ADF87D
:10251000000048208DF8030069468A48FEF764FCF5
:102520004020ADF8000010208DF8030003208DF846
:10253000020069468348FEF757FC0420ADF800000E
:1025400018208DF8030003208DF8020069467E48AC
:10255000FEF74AFC0820ADF8000004208DF80300C7
:1025600069467948FEF740FC0220ADF800001020D3
:102570008DF8030003208DF8020069467248FEF7CB
:1025800033FC4FF40070ADF8000018208DF8030004
:1025900003208DF8020069466B48FEF725FC4FF4D6
:1025A0008060ADF8000004208DF80300694666489D
:1025B000FEF71AFC4FF48060ADF8000018208DF88B
:1025C000030003208DF8020069465E48FEF70CFC0C
:1025D0004FF40060ADF8000004208DF80300694658
:1025E0005848FEF701FC4FF40040ADF80000102001
:1025F0008DF8030003208DF8020069465248FEF76B
:10260000F3FB08BD1CB51020FEF7A7F8042102203B
:10261000FEF700FD1020009000208DF804000C2033
:102620008DF8050001208DF806006846FEF71EF8BB
:102630001CBD08B54FF4A060FDF774FD25208DF892
:10264000000002208DF8010000208DF8020001201A
:102650008DF803006846FDF76AFD26208DF800001E
:1026600001208DF8010000208DF8020001208DF876
:1026700003006846FDF75BFD27208DF8000002206F
:102680008DF8010000208DF8020001208DF8030074
:102690006846FDF74CFD0A208DF8000000208DF8FB
:1026A00001008DF8020001208DF803006846FDF757
:1026B0003EFD00214FF00060FDF76BFD08BD00B549
:1026C00091B001210846FEF73EFE01214802FEF7C7
:1026D00047FE2248FFF7C4F821480690214807909A
:1026E000002008900420099000200A9080200B9080
:1026F00040000C9080000D9020200E9000020F9062
:102700000020109006A91548FFF74CF90020019011
:1027100001208DF808008DF809004FF46020039027
:102720000020049004208DF8140001A90C484C38B6
:10273000FDF78DFD072317E03D0000201000140079
:10274000000430000010014000080140000C01406E
:1027500000023000002004E00014014008000240A4
:102760004C2401403E00002001220A21AB48FDF725
:1027700006FE072302220821A848FDF700FE0723D2
:1027800003220B21A548FDF7FAFD072304220921A6
:10279000A248FDF7F4FD0121A048FDF78FFD0121BE
:1027A0009E48FDF780FD9D48FDF79FFD00BF9B48BB
:1027B000FDF7A0FD0028FAD19848FDF7A5FD00BF60
:1027C0009648FDF7A6FD0028FAD111B000BD00B56E
:1027D00087B001218803FEF7C3FD0020ADF8040097
:1027E000ADF806004FF40070ADF808000020ADF819
:1027F0000A0001A98A48FEF7CFFE4FF41650039055
:102800000020ADF81000ADF81200ADF81400ADF8DE
:1028100018000C20ADF8160003A98148FEF747FE0A
:1028200040F225517E48FEF7CBFF012240F22551B0
:102830007B48FEF7D4FE01217948FEF7C4FE07B0BD
:1028400000BD1FB501214804FEF797FD4FF4165057
:1028500000900020ADF80400ADF80600ADF80800C7
:10286000ADF80C000C20ADF80A0069466D48FEF783
:102870001EFE40F225516B48FEF7A2FF012240F2F6
:1028800025516848FEF7ABFE01216648FEF79BFE26
:102890001FBD1FB501218804FEF76FFD4FF41650D0
:1028A00000900020ADF80400ADF80600ADF8080077
:1028B000ADF80C000C20ADF80A0069465A48FEF746
:1028C000F6FD40F225515848FEF77AFF012240F20A
:1028D00025515548FEF783FE01215348FEF773FE4C
:1028E0001FBD10B50120FEF7C1FC00BF6120FEF73F
:1028F0000CFC0028FAD045F25550FFF7DBF8032016
:10290000FFF7DBF84FF4FA60FFF7DAF8FFF7DBF8D0
:10291000FFF7DEF810BD00B587B0012141F20500D8
:10292000FEF71EFD41480078B8B1A020ADF80400C4
:1029300010208DF8070003208DF8060001A93C48FF
:10294000FEF752FA4020ADF8040004208DF807008D
:1029500001A93748FEF748FA37E000213548FFF76C
:1029600094F9E020ADF8040018208DF8070003204A
:102970008DF8060001A92E48FEF736FA0020ADF8C2
:1029800008004FF48270ADF80A000020ADF80C008A
:10299000ADF80E000120ADF810004002ADF81200B5
:1029A0003820ADF814000020ADF816000720ADF86F
:1029B000180002A91F48FFF7C3F801211D48FFF7BF
:1029C00064F901211B48FFF7A5F9642002F03AFDE4
:1029D00007B000BD10B5FFF7A9FCFFF7E6FCFFF755
:1029E00011FEFFF726FEFFF76AFEFFF7F0FEFFF786
:1029F00028FFFFF790FFFFF774FF0F484FF0E0212B
:102A00004861002088610520086100F0C6F841F2A5
:102A10008831012000F0FFF810BD000000240140C3
:102A20000038014000440040004800403C000020C5
:102A30000008014000300140FEFFFF0010B5AA4829
:102A4000006818B1A848006802F09DF902F03EFB4A
:102A500010BDA54909680143A34A116070472DE9DB
:102A6000F0410746012000F03CF9A048006800282A
:102A700034D09E48046800262EE00025A088B84285
:102A800002D80020A08002E0A088C01BA080A088FF
:102A900040B9E08830B1206820B12068FFF7D9FF45
:102AA000E088A080A08808B1206848B91EB98F4985
:102AB000A068086001E0A068B0602546A46801E055
:102AC0002646A4683DB1A88810B92868FFF7C1FF61
:102AD000284602F089FE00BF002CCED1002000F075
:102AE00000F9BDE8F08170B500240025012000F058
:102AF000F8F84FF0E02084697D48B4FBF0F47D489D
:102B00000068844208D27B480068051B7A48006848
:102B100028447949086015E076480068844211D954
:102B200040F2654060436FF07F41A1EB8010704937
:102B3000B0FBF1F06F49096845186F4800682844F8
:102B40006D490860002000F0CCF815B12846FFF769
:102B500086FF012000F0C5F86648046066480068FA
:102B60006649884209D364480068401A624908608F
:102B700063480068401C62490860002000F0B1F81A
:102B8000FFF75CFF00205849086070BD5C4A12687E
:102B90000260594A12680A60704700205349086071
:102BA00070470146514A106804E002688A4200D129
:102BB00002E080680028F8D100BF70472DE9F0419D
:102BC00007460E463846FFF7ECFF04461CB1A680C8
:102BD0002046BDE8F0810C2002F02EFE0446A4B190
:102BE0002760A6800020E080A0604048006810B9FF
:102BF0003E48046007E03D48056800E0AD68A8680D
:102C00000028FBD1AC602046E3E70020E1E708B1F3
:102C100000210160704770B504460D46012000F0A8
:102C200060F829462046FFF7C9FF0646002000F05D
:102C300058F80EB1012070BD0020FCE770B50646C3
:102C40000D46012000F04DF829463046FFF7B6FF4B
:102C5000044604B1E580002000F043F80CB10120E7
:102C600070BD0020FCE770B50546012000F039F882
:102C70002846FFF796FF044614B12046FFF7C7FF2A
:102C8000002000F02EF80CB1012070BD0020FCE700
:102C900070B505460026012000F023F82846FFF70E
:102CA00080FF044604B1A688002000F01AF83046E0
:102CB00070BD70B50025012000F013F80B480468C2
:102CC00002E0681CC5B2A468002CFAD1002000F014
:102CD00008F8284670BD044909688143024A11601A
:102CE000704780F3108870474C0000204800002097
:102CF000401901005800002054000020005C260507
:102D00005000002038B50020009002226946FE489D
:102D100002F072FA9DF80000FF2803D19DF801002F
:102D2000FF2804D02422F949F74802F065FA02226C
:102D30006946F74802F060FA9DF80000FF2803D1C9
:102D40009DF80100FF2804D01822F249F04802F053
:102D500053FA002445E0062094FBF0F1EE4AED48DA
:102D6000035D0546601C285C43EA002022F8110040
:102D7000062094FBF0F1E94A2B46A01C1B5CE01CEA
:102D8000285C43EA002022F81100062094FBF0F0B2
:102D9000114631F8100000EB80004000062194FB42
:102DA000F1F1DF4A42F82100062094FBF0F2DD4900
:102DB0002B46201D1B5C601D285C43EA002021F887
:102DC0001200062094FBF0F031F8100000EB8000B8
:102DD0004000062194FBF1F1D34A42F82100A01DE6
:102DE000C4B2182CB7DB0222D049D14802F004FA51
:102DF000CE484078FF2803D10020CE49087003E078
:102E0000CA484078CB4908703822CB49CB4802F0F9
:102E1000F3F938BDF0B502460B46FF24FF25002626
:102E200000BF0BE012F8010B80EA0401C448405CCB
:102E300080EA0504C348455C701CC6B29E42F1DBC3
:102E400044EA0520F0BD70B505460C4629462046EB
:102E5000FFF7E0FFD0B9A078102816DCBA48007858
:102E6000012812D12078C0F1FE00C6B2072E08DC7E
:102E7000A27806EB4601B54B03EB4100E11C02F0E2
:102E8000FDFB0020B049087070BD00BF1022AF49A3
:102E9000AF4802F0F3FB00BFF6E72DE9F04106462C
:102EA0000F4690461D46022E1AD1002406E008EB7C
:102EB0000400385CA7490855601CC4B2AC42F6DB7C
:102EC000A54805700221A548FEF73BF80120A4495A
:102ED0000870012240F22771A248FEF780FB1AE039
:102EE000012E16D1002406E008EB0400385C9E4950
:102EF0000855601CC4B2AC42F6DB9C48057000204B
:102F00009B490870012240F227719A48FEF767FB3F
:102F100001E0BDE8F08100BFFBE72DE9F047814605
:102F20000F4615461E46089C84F800906770280AD4
:102F3000A070E570300A2071667106212046FFF707
:102F400069FF804684F806804FEA1820E071082067
:102F5000BDE8F08738B588480078002835D16B483F
:102F6000807FFB2830DB6948807FFE282CDC83488B
:102F70000090664890F822300022032180480078B3
:102F8000FFF7CBFF0446234600227C490320FFF7CE
:102F900084FF7C480078401C7A4908705B4890F8B0
:102FA00020000978884205DD75480078401E744984
:102FB000087005E0FE207249087000207149087011
:102FC00001206149087000BF00BF00BF6A48007857
:102FD000401C6949087008460078012801DB002080
:102FE000087038BD2DE9F04107460C462078664947
:102FF000097888427ED139462046FFF70BFF00282A
:10300000F8D16078032843D1E078A17840EA01261E
:103010006079217940EA01205C49088020785C4988
:10302000087003204870594800784006000E8870E8
:1030300008468278574800EB46015548C01C02F00C
:103040001DFB52480088032202EB400081B2504829
:10305000FFF7E0FE05464D480088032202EB4000E2
:103060004B4A1554290A49480088042202EB4000C3
:10307000474A115445480078052202EB4000C1B28E
:1030800000232C480278424802F061FABDE8F08142
:103090006078062819D1A07850B9E078032807DCB9
:1030A0002079617940EA0120E1783B4A22F8110059
:1030B0003748216801606168416000231D4802783B
:1030C0000821334802F043FAE0E7607810281AD16B
:1030D0002F4821680160A18881800621FFF79AFEB0
:1030E00005462B498D71280AC871002311480278C2
:1030F000082100E084E0264802F029FAE07804285C
:103100004CDB01204BE07AE000C001087700002092
:1031100000C401085F000020DE000020E60000205F
:10312000C0080020EE000020F8000020150100205B
:1031300000C80108A0000020900C002000C1010878
:10314000A4590008A458000826010020F00B002014
:10315000184C0020B4040020350000200008014075
:103160002E000020004400403405002037000020DD
:103170002F000020003801402301002040070020DC
:1031800024010020250100209D0000209E00002039
:1031900040080020084C0020004C00200020E1786E
:1031A000102901DA012100E00021084060B1A27974
:1031B000E11DFE4802F062FA1822FC49FC4801F0C9
:1031C000CEFFFFF79FFD61E7E078102801DB0120CB
:1031D00000E00020E178222901DA012100E000214D
:1031E000084060B1A279E11DF24802F047FA2422BA
:1031F000F049F14801F0B3FFFFF784FD46E700BF57
:103200002078F02862D1607810285FD1E0782228F9
:103210005CD139462046FFF7FDFD002855D1E07905
:10322000412811D0E54821680160A18881800621EC
:10323000FFF7F0FD0546E1498D71280AC8710823A2
:1032400000220220FFF729FEDD480078FF280DD07C
:10325000DB48007850B1DA480078E179884208D13B
:10326000E079402805DC607AFF2802D0207AD44932
:103270000870607AFF280AD1E079412804D0D0484C
:103280000078E179884202D1A07ACD4948700222C3
:10329000CB49CC4801F063FFFFF734FDCA48007802
:1032A00090B1607AFF280FD1E079412804D0C4485A
:1032B0000078E179884207D102F0E2F84FF4FA6130
:1032C0004FF40060FFF7A7FC00BFDFE6B948007EBF
:1032D00020285BD12178BD4800782038814255D123
:1032E00039462046FFF796FDE8BB607803284CD1AD
:1032F000A078C8BBE078B8BB2079A8BBE078A178FB
:1033000040EA01256079217940EA0120B04908802E
:10331000AE4800782038AF49087003204870AC48A8
:1033200000784006000E887008468278AA4800EBB4
:103330004501A848C01C02F0A1F9A5480088032255
:1033400002EB400081B2A348FFF764FD0646A048A7
:103350000088032202EB40009E4A1654310A9C4822
:103360000088042201E011E00FE002EB4000994ADE
:10337000115497480078052202EB4000C1B20023A7
:1033800096480278934802F0E2F800BF00BF7DE65D
:1033900010B50346002000BF02E01A54441CE0B2FE
:1033A0008842FADB10BD2DE9F04107460C46207833
:1033B0008649097888427CD139462046FFF72AFDA4
:1033C0000028F8D16078032843D1E078A17840EA5A
:1033D00001266079217940EA0120814908807B48F3
:1033E000007876490870032048707D4800784006D0
:1033F000000E8870084682787A4800EB46016F48D4
:10340000C01C02F03BF976480088032202EB400022
:1034100081B26A48FFF7FEFC054671480088032226
:1034200002EB4000654A1554290A6D4800880422C1
:1034300002EB4000614A115469480078052101EB14
:103440004000C3B200225D490220FFF726FDBDE81F
:10345000F0816078062818D1A07850B9E078032868
:1034600007DC2079617940EA0120E1785E4A22F8A0
:103470001100524821680160616841600823002200
:1034800001460220FFF709FDE1E76078102875D1B9
:103490004A4821680160A18881800621FFF7BAFCB3
:1034A000054646498D71280AC8710823002202206A
:1034B00000E0A6E0FFF7F1FCE07804280FDBE078FD
:1034C00010280CDAA279E11D384802F0D7F818224A
:1034D0003649374801F043FEFFF714FCB7E7E078C0
:1034E00010280FDBE07822280CDAA279E11D3148A0
:1034F00002F0C4F824222F492F4801F030FEFFF7D4
:1035000001FCA4E7E078282839DBE078442836DAA3
:10351000A279E1782839354B03EB8100E11D02F0F7
:10352000ADF8E1782839314A52F82100304902F0EB
:10353000C9F8804602F0F8F8C0F30721E07828388F
:103540002C4A02F81010E1782839284A52F8210054
:10355000274902F0B7F8804602F0E6F8C1B2E078F9
:103560002838012202EB4000224A11543822214916
:10357000214801F0F4FDFFF7C5FB68E740E0E07883
:1035800064283DD1E079217A40EA01401B49088056
:10359000607AA17A40EA014018494880E07A217BAC
:1035A00040EA01401549888051E700005F00002093
:1035B00000C401087700002000C001084006002078
:1035C0001501002000C80108140100209D00002002
:1035D0009E00002040080020184C0020A000002081
:1035E000B4000020084C0020004C0020200C0020DB
:1035F0000000C842C80C002000C101082C010020B6
:1036000000BF2078F02862D1607810285FD1E07880
:1036100022285CD139462046FFF7FCFB002855D113
:10362000E079412811D0FD4821680160A18881809E
:103630000621FFF7EFFB0546F8498D71280AC8718E
:10364000082300220220FFF728FCF5480078FF2815
:103650000DD0F348007850B1F1480078E179884204
:1036600008D1E079402805DC607AFF2802D0207A72
:10367000EB490870607AFF280AD1E079412804D02C
:10368000E7480078E179884202D1A07AE44948709D
:103690000222E349E34801F062FDFFF733FBE24811
:1036A000007890B1607AFF280FD1E079412804D0EA
:1036B000DB480078E179884207D101F0E1FE4FF460
:1036C000FA614FF40060FFF7A6FA00BFBFE6D748E3
:1036D000007E202854D12178D548007820388142B6
:1036E0004ED139462046FFF795FBE8BB60780328AA
:1036F00044D1E078A17840EA01256079217940EA57
:103700000120CC490880CA4800782038C349087095
:1037100003204870C74800784006000E88700846AD
:103720008278C54800EB4501BC48C01C01F0A6FFEB
:10373000C0480088032202EB400081B2B748FFF77F
:1037400069FB0646BB480088032202EB4000B34AEF
:103750001654310AB7480088042202EB4000AF4AF1
:103760001154B448007800E009E0052101EB400065
:10377000C3B20022A9490220FFF78FFB00BF66E613
:1037800000BF64E6F0B504461D46002604EBC40005
:1037900000EB0410A94F07EBC00020F81520002310
:1037A0000BE004EBC40000EB0410A44F07EBC000D7
:1037B00030F813000644581CC3B28B42F1DBB6FB51
:1037C000F1F082B21046F0BD30B503460C46002140
:1037D0000AE003EBC30000EB0310984D05EBC000BB
:1037E00020F81120481CC1B2A142F2DB104630BDC6
:1037F0002DE9F041B2B005460B46144600270021E2
:103800000FE0DFF83CC23CF81500984200DA184699
:10381000A04200DD20462DF8110001F1010C0CF052
:10382000FF016429EDDB00211CE001F1010C0CF02B
:10383000FF0211E03DF811C03DF81280C44507DBDE
:103840003DF811603DF812C02DF811C02DF812603E
:1038500002F1010C0CF0FF02642AEBDB01F1010C18
:103860000CF0FF016429E0DB282106E03DF811C0DF
:10387000674401F1010C0CF0FF013C29F6DB4FF02D
:10388000140CB7FBFCFC1FFA8CF032B0BDE8F081E1
:10389000F0B56C48007820B101287DD002287CD199
:1038A0000FE369480078002878D1674840780028FD
:1038B000FAD1002440F219524FF483712046FFF7E9
:1038C00097FF05466148005D40B92A4664212046BD
:1038D000FFF77AFF054601205C4908555C48035D07
:1038E0005C48015D2A462046FFF74CFF0546012053
:1038F000564908555648005D401C5549085508462C
:10390000005D5449095D884202DB0020504908559A
:1039100051480580012440F219524FF4837120462A
:10392000FFF766FF05464948005D40B92A46642115
:103930002046FFF749FF0546012044490855444801
:10394000035D4448015D2A462046FFF71BFF0546FC
:1039500001203E4908553E48005D401C3C49085541
:103960000846005D3B49095D884202DB002038497A
:1039700008553A4805803A480088374909888842FE
:1039800003DA35480088364908803548408833498D
:103990000988884207DA02E013E191E268E02F48E3
:1039A00000882F4948802F480088B0F57F4F08DAFB
:1039B0002C4800882A490988884202DA00202A49CE
:1039C000088028484088B0F57F4F08DA25480088ED
:1039D00023494988884202DA0020234948801E484A
:1039E0000078224908701C480088000A48701C486A
:1039F000007888701A480088000AC8701748007854
:103A0000087116480088000A487115488078887146
:103A100013484088000AC871D2E000004006002028
:103A20001501002000C801081401002077000020C3
:103A30009D000020B4000020184C0020D008002079
:103A40003E0000209C0000200C0100201F010020EF
:103A50001B01002017010020A4000020A600002068
:103A6000A8000020DE000020004C0020084C0020B0
:103A7000002440F29C5200212046FFF7B9FE054683
:103A8000FE48005D40B92A4664212046FFF79CFEAF
:103A900005460120F9490855F948035DF948015DDB
:103AA0002A462046FFF76EFE05460120F3490855D9
:103AB000F348005D401CF24908550846005DF14995
:103AC000095D884202DB0020ED490855EE4805807B
:103AD0000088642802DA0020EB490880EB4800885F
:103AE000E9490988884203DAE7480088E7490880FD
:103AF000E5480088E6490880E4484088098888420B
:103B000003DAE3480088E1494880E248007848B990
:103B10000020E149087048708870C87008714871C9
:103B20008871C871DB480078012822D1DB48008801
:103B3000B0F57F4F09DAD9480088D449098888420E
:103B400003DA0820D64908804880CF480078D24957
:103B50000870CD480088000A4870CC48007888700A
:103B6000CA480088000AC87000200871487188712E
:103B7000C871C8480078022822D1C8484088B0F5EA
:103B80007F4F09DAC5484088C0494988884203DA2E
:103B90000820C349088048800020BF490870487049
:103BA0008870C870BA4800780871B9480088000A5F
:103BB0004871B64880788871B4484088000AC87156
:103BC0000FE2B848807800287ED1B648C078002837
:103BD000FAD1022440F219524FF483712046FFF7C4
:103BE00007FE0546A548005D40B92A4664212046E7
:103BF000FFF7EAFD05460120A0490855A048035DEE
:103C0000A048015D2A462046FFF7BCFD054601207D
:103C10009A4908559A48005D401C9949085508463C
:103C2000005D9849095D884202DB002094490855EF
:103C30009D480580032440F219524FF483712046B9
:103C4000FFF7D6FD05468D48005D40B92A46642140
:103C50002046FFF7B9FD05460120884908558848E8
:103C6000035D8848015D2A462046FFF78BFD054627
:103C70000120824908558248005D401C8049085552
:103C80000846005D7F49095D884202DB00207C49CF
:103C90000855864805807D48808883490988884280
:103CA00003DA81480088794988807848C0887F494C
:103CB0000988884203DA7D4800887449C8807748BB
:103CC0008088B0F57F4F00E035E008DA73488088DF
:103CD0006E498988884202DA0020714988806F48DD
:103CE000C088B0F57F4F08DA6C48C0886749C9883A
:103CF000884202DA00206A49C8806B480078664929
:103D0000087269480088000A487260480079887221
:103D10005E488088000AC872644800780873634867
:103D20000088000A48735948807988735748C088CA
:103D3000000AC873C4E0022440F29C5200212046CD
:103D4000FFF756FD05464D48005D40B92A466421FF
:103D50002046FFF739FD05460120484908554848E7
:103D6000035D4848015D2A462046FFF70BFD0546E6
:103D70000120424908554248005D401C4049085511
:103D80000846005D3F49095D884202DB00203C494E
:103D90000855454805800088642802DA0020424919
:103DA00008803A48808840490988884203DA3E48BA
:103DB0000088364988803C4800883C490880334860
:103DC000C0880988884203DA384800882F49C880AB
:103DD0003748007848B900202F4908724872887225
:103DE000C872087348738873C87331480078012813
:103DF00022D12A488088B0F57F4F09DA2748808889
:103E000022498988884203DA082025498880C880A9
:103E1000254800782049087223480088000A487223
:103E20001A480079887219488088000AC8720020F0
:103E3000087348738873C8731D48007802283FD1FF
:103E40001648C088B0F57F4F09DA1448C0880F497A
:103E5000C988884203DA082011498880C880002078
:103E60000D49087248728872C87210480078087349
:103E70000E480088000A487304481BE01F01002018
:103E80001B01002017010020A4000020A800002032
:103E9000A6000020A1000020084C0020DE00002029
:103EA000004C00200C010020B0000020B2000020D7
:103EB000A200002080798873F548C088000AC87382
:103EC0008FE00020F3490870F348807FFE287DD101
:103ED00000207EE0F04A92F82220002A1DDDED4A03
:103EE00012780F2A19DA00EB4002EC4B03EB420286
:103EF0005378E84A16781278521CE64F3A70E84A2E
:103F0000935500EB4002E54B13F812303A46167811
:103F10001278521C3A70E24A9355DF4A92F82220F6
:103F2000012A29DDDC4A92F82220032A24DCD94A1E
:103F300012780F2A20DA00EB4002D84B03EB420242
:103F4000D27800EB4003D54E06EB43039B7842EA60
:103F5000032202F5C87291B2CE4A16781278521C2A
:103F6000CC4F3A70CE4A91550E0A3A4613781278E1
:103F7000521C3A70CA4AD654C74A92F82220022AE2
:103F800023DDC54A92F82220032A1EDCC14A12789A
:103F90000F2A1ADA00EB4002C04B03EB42025379BE
:103FA000BC4A16781278521CBA4F3A70BC4A9355E4
:103FB00000EB4002B94B03EB420213793A46167804
:103FC0001278521C3A70B64A935500E008E0421C41
:103FD000D0B2B14A92F8202082423FF77BAF00E096
:103FE00000BF00BFAF480078022803DB0020AD49C6
:103FF000087004E0AB480078401CAA490870F0BD86
:1040000010B50024FDE3A84830F814000C287DD238
:10401000DFE810F00C004300BC003A029B03B7033A
:1040200016041704180463047C006C0500209F49E3
:1040300008559F48005D30BB1CB908219D48FCF71E
:1040400080FF012C03D121039B48FCF77AFF022C4F
:1040500003D161039848FCF774FF032C04D14FF49B
:1040600000519548FCF76DFF944830F8140030B1CA
:104070001E20934908550020904921F81400012082
:104080008B49085508E08E48005D012804DB8C4808
:10409000005D401E8A49085556E3002083490855B3
:1040A0008748005D002867D1864850F8240030B169
:1040B000844850F82400401E824941F82400814879
:1040C00050F82400E8BB1CB908217A48FCF73BFFF4
:1040D000012C03D121037848FCF735FF022C03D1D2
:1040E00061037548FCF72FFF032C04D14FF40051F6
:1040F0007148FCF728FF744850F8240070B17248EA
:1041000050F824007149884208D800E0FEE36E4868
:1041100050F82400401E6C4941F824006A4850F8C9
:10412000240070B90020604921F81400684830F874
:10413000140000EB80004000634941F8240065480A
:1041400000E007E030F8140000EB800040005D491B
:1041500041F82400594830F81400012809D0012002
:10416000564921F814000020494921F814005A4901
:10417000085500204E4908555148005D012804DBD0
:104180004F48005D401E4E49085585E701204749CC
:104190000855002C6CD15148005D022868D0504869
:1041A0000078002873D14749601C51F8200000288E
:1041B0005FD100BF08213F48FCF7C3FE4FF4805198
:1041C0003D48FCF7C0FE00BF012045494870002073
:1041D0004249085543480078022804D000202C4961
:1041E00048803D49487002203E4908703649601CAD
:1041F00051F8200070B1601C51F82000334988420A
:1042000008D83149601C51F82000401E0A46611C44
:1042100042F821002C49601C51F82000002827D1C9
:104220002F49487002202D4908552949601C31F852
:10423000100000EB80004100234A601C42F820106F
:10424000244931F8100000EB800041001D4A601C39
:1042500042F8201000BF08211648FCF772FE4FF408
:1042600080511548FCF76DFE00BF00201D49087005
:1042700061E01449601C51F82000A8B3601C51F89B
:104280002000401E0A46611C42F8210053E02CE049
:10429000A80000202701002077000020F00B00205C
:1042A000184C00209C000020004C00200C01002035
:1042B000BA00002000100140000C0140CE00002098
:1042C000B6000020C0080020F800002000F6090019
:1042D000EE000020E60000201F0100200801002061
:1042E00010010020A100002025E00020FD490870F9
:1042F0000120FD490855FD4830F8140000EB80000E
:104300004000FB4941F82400FA4830F8140000EB63
:1043100080004000F84941F8240000BF0821F74818
:10432000FCF70FFE4FF48051F548FCF70AFE00BF82
:104330000020F4490870022C6CD1EB48005D022883
:1043400068D0E8488078002874D1EB49601C51F8A7
:10435000200000285FD100BF6103E948FCF7F1FDB0
:104360002103E748FCF7EFFD00BF0120DD49C870DD
:104370000020DD490855E4480078022804D00020D8
:10438000E249C880E249C8700220DF490870D84974
:10439000601C51F8200070B1601C51F82000DD490C
:1043A000884208D8D249601C51F82000401E0A46B5
:1043B000611C42F82100CE49601C51F8200048BB26
:1043C0000020C849C8700220C7490855C749601C69
:1043D00031F8100000EB80004100C54A601C42F833
:1043E0002010C44931F8100000EB80004100C24A9F
:1043F000601C42F8201000BF4FF48041C048FCF719
:10440000A0FD4FF40051BE48FCF79BFD00BF00200B
:10441000BD49087035E0B849601C51F8200080B3F0
:10442000601C51F82000401E0A46611C42F8210021
:1044300027E0FFE70020AB4988700120AA49085512
:10444000AA4830F8140000EB80004000A84941F869
:104450002400A84830F8140000EB80004000A64972
:1044600041F8240000BF4FF48041A548FCF769FDE6
:104470004FF40051A248FCF764FD00BF0020A249A0
:104480000870601CC4B207E60120A3490855002C3F
:1044900065D19548005D012861D092484078E8BB1D
:1044A000954850F82400D0BB00BF08219348FCF782
:1044B0004AFD4FF480519248FCF743FD00BF0120B4
:1044C000884908700020884908558E4800780128DE
:1044D00004D000208D4908808D4908700120894949
:1044E0000870834850F8240060B1814850F82400D7
:1044F0008849884206D87E4850F82400401E7C49EE
:1045000041F824007A4850F8240040BB0020754947
:104510000870012074490855744801E02CE01FE040
:1045200030F8140000EB80004000714941F824008D
:10453000704830F8140000EB800040006E4941F8EC
:10454000240000BF08216D48FCF7FBFC4FF48051AC
:104550006B48FCF7F6FC00BF00206A49087034E0A5
:10456000654850F8240080B3634850F82400401E8A
:10457000614941F8240028E000205A49487002208F
:10458000594908555949601C31F8100000EB80006A
:104590004100574A601C42F82010564931F810007B
:1045A00000EB80004100544A601C42F8201000BF1C
:1045B00008215248FCF7C5FC4FF480515048FCF7E5
:1045C000C0FC00BF00204F490870022C65D146484E
:1045D000005D012861D04348C078E0BB464850F8F0
:1045E0002400C8BB00BF61034548FCF7ACFC2103B5
:1045F0004348FCF7A6FC00BF01203A498870002020
:104600003949085540480078012804D000203F4926
:1046100088803F49887001203B490870344850F831
:10462000240060B1324850F824003A49884206D844
:104630002F4850F82400401E2D4941F824002C48F2
:1046400050F8240048BB00202649887001202649E4
:104650000855264801E02DE020E030F8140000EB7A
:1046600080004000224941F82400224830F814001C
:1046700000EB80004000204941F8240000BF4FF4C7
:1046800080411F48FCF75DFC4FF400511C48FCF7CB
:1046900058FC00BF00201C49087053E0164850F831
:1046A0002400D8B3144850F82400401E124941F8A1
:1046B000240047E000200B49C87002200A49085531
:1046C0000A49601C31F8100000EB80004100084AE4
:1046D000601C42F82010074931F8100000EB800000
:1046E00041001CE01001002008010020EE00002025
:1046F000F8000020E6000020C00800200010014063
:10470000000C0140A1000020A2000020A800002011
:104710001F01002000F609000C01002012E0FE4AF3
:10472000601C42F8201000BF4FF48041FB48FCF7AA
:1047300008FC4FF40051F948FCF703FC00BF0020CF
:10474000F7490870601CC4B20CE30020F549085515
:104750001CB90821F448FCF7F4FB012C03D1210318
:10476000EE48FCF7EEFB022C03D16103EB48FCF7AB
:10477000E8FB032C04D14FF40051E848FCF7E1FBBF
:10478000F0E20020E7490855E34850F8240060B102
:10479000E14850F82400401EDF4941F82400002081
:1047A000E24921F81400E2490855DB4850F824009A
:1047B00040BB1CB90821DC48FCF7C5FB012C03D128
:1047C0002103D648FCF7BFFB022C03D16103D34879
:1047D000FCF7B9FB032C04D14FF40051CF48FCF790
:1047E000B2FBD44850F8240078B1D24850F82400E5
:1047F000D149884209D8CF4850F82400401ECD49FD
:1048000001E0B2E21BE041F82400CA4850F824005D
:10481000A8B90420C94921F81400C94830F8140087
:1048200000EB80004000C34941F82400C54830F83F
:10483000140000EB80004000B74941F8240091E2E9
:1048400090E28FE20120B7490855BF48005DB8BB30
:104850006CB900BF0821B448FCF773FB4FF48051DA
:10486000AE48FCF76EFB00BF0020B8490870022C70
:104870000CD100BF6103A948FCF763FB2103A748E3
:10488000FCF75FFB00BF0020A5490870AB4830F87B
:104890001400AF4931F81410884208D01E20AD49E9
:1048A0000855A64830F81400A94921F81400012041
:1048B000A54908550020A8490855A849085509E008
:1048C000FFE7A448005D012804DBA248005D401E0C
:1048D000A0490855601CC4B244E201209149085522
:1048E0009B4830F814000B2826D16CB900BF082172
:1048F0008D48FCF726FB4FF480518848FCF721FBDC
:1049000000BF002091490870022C00E029E20CD180
:1049100000BF61038148FCF714FB21037F48FCF7CB
:1049200010FB00BF00207E490870322089490855DD
:104930000920874921F814008648005D00287DD1B0
:104940008648005D18B18448005D022876D1E4BB3A
:104950008348005D012850D000BF08217248FCF751
:10496000F2FA4FF480516D48FCF7EBFA00BF78483B
:1049700030F81400092803D00920754921F81400E3
:1049800072480078012804D00020684908806849EE
:10499000087001206D490870664850F8240060B125
:1049A000644850F824006449884206D8614850F8A9
:1049B0002400401E5F4941F824005E4850F824005E
:1049C00018B900BF0821584800E016E0FCF7B9FA12
:1049D0004FF480515148FCF7B4FA00BF00205B4906
:1049E000087001205E490855554830F8140000EB66
:1049F000800040004F4941F82400022C54D158480F
:104A0000005D012850D000BF61034448FCF79BFAC9
:104A100021034248FCF795FA00BF4D4830F81400D6
:104A2000092803D009204A4921F814003C4800789D
:104A3000012806D000203D49888000E03DE03C4947
:104A400088700120364908703A4850F8240060B157
:104A5000384850F824003849884206D8354850F87C
:104A60002400401E334941F82400324850F8240005
:104A7000D0B900BF4FF480412848FCF762FA4FF4E8
:104A800000512648FCF75DFA00BF00202449087059
:104A90000120334908552A4830F8140000EB800003
:104AA0004000244941F824000020274908550220ED
:104AB000294908551E20294908552648005D012826
:104AC00004DB2448005D401E224908552248005D51
:104AD000022808D02148005D012804DB1F48005D42
:104AE000401E1E490855601CC4B23BE101200D491F
:104AF0000855174830F8140009284CD194BB00BF62
:104B000008210948FCF71DFA4FF480510348FCF7CF
:104B100018FA00BF002026E0C0080020000C014069
:104B2000A20000200C01002000100140A80000207D
:104B30001F010020F800002000F60900004C0020B2
:104B4000EE000020E6000020C2000020A1000020AE
:104B5000D6000020BE000020CA000020C6000020B1
:104B60000801002001E0FE490870022C0CD100BFB2
:104B70006103FC48FCF7E5F92103FA48FCF7E1F989
:104B800000BF0020F84908703220F84908550B2072
:104B9000F74921F81400F548005D00287ED1F5485A
:104BA000005D18B1F448005D012877D1F4BBF348EB
:104BB000005D022856D000BF0821F148FCF7C1F97A
:104BC0004FF48051E748FCF7BEF900BFE84830F8E1
:104BD00014000B2803D00B20E54921F81400E0480D
:104BE0000078022804D00020E6494880E649487051
:104BF0000220DB490870E549601C51F8200070B1C3
:104C0000601C51F82000E249884208D8DF49601C46
:104C100051F82000401E0A46611C42F82100DB4981
:104C2000601C51F8200008B900BF00E01AE008211C
:104C3000D348FCF786F94FF48051CA48FCF781F954
:104C400000BF0020C64908700220CC490855D14950
:104C5000601C31F8100000EB80004100CB4A601C62
:104C600042F82010022C5AD1C448005D022856D0C8
:104C700000BF6103BB48FCF764F92103B948FCF7A6
:104C800062F900BFBA4830F814000B2803D00B209B
:104C9000B74921F81400B448007800E048E0022841
:104CA00004D00020B749C880B749C8700220AE4977
:104CB0000870B649601C51F8200070B1601C51F8B2
:104CC0002000B349884208D8B049601C51F8200040
:104CD000401E0A46611C42F82100AC49601C51F894
:104CE0002000E0B900BF4FF480419E48FCF729F94D
:104CF0004FF400519B48FCF724F900BF00209A496B
:104D0000087002209D490855A249601C31F8100026
:104D100000EB800041009D4A601C42F820100020FA
:104D20009D4908550120944908551E209149085570
:104D30008E48005D012804DB8C48005D401E8B49D5
:104D400008558D48005D012808D08A48005D01287B
:104D500004DB8848005D401E86490855601CC4B2CB
:104D600000E000BF00BF601CC4B2032C7FF74BA95A
:104D700010BD10B501218948FCF73FFE012188488C
:104D8000FBF7D1FA10BD7CB5044604F00100002801
:104D90005AD002218348FCF7D6F820217848FCF746
:104DA000D2F8FDF7AFFFFFF7E4FF7B20FCF7ADF98A
:104DB00010B300BF08217248FCF7C3F84FF48051CC
:104DC0006848FCF7BEF800BF00BF4FF4804165485B
:104DD000FCF7B7F84FF400516248FCF7B2F800BF97
:104DE00071480021016041601021704800F05FFCB3
:104DF00010216F4800F05BFCFCF7F0FA6D4800787A
:104E000038B100F03DFB4FF4FA614FF40060FDF75C
:104E100002FF6948807F38B1FDF73BFD40F6B831AD
:104E20004FF48040FDF7F7FE4FF4FA618020FDF764
:104E3000F2FE4FF47A711020FDF7EDFE42F2107190
:104E40004FF40050FDF7E7FE20214D48FCF76CF8C9
:104E5000C0F10100C5B22A4620214948FCF775F887
:104E600004F0100028B1FFF7CBF864211020FDF703
:104E7000D2FE04F08000C0B1002050490870FEF757
:104E800007FD4FF496718020FDF7C5FE4C48007871
:104E9000FA2805DC4A480078401C4949087004E0BB
:104EA000012000F017F900F01AF904F0020038B1FF
:104EB000012044490870444944480078FEF773FAD9
:104EC00004F00400A8B142480078401E414908702F
:104ED00001203F4908703F4800783C4908703D4830
:104EE0000278411C384800F0C9FB03210220FDF77D
:104EF00092FE04F40060E0B10020374908700022FF
:104F0000364801783648FEF743FA002141F20D2079
:104F100000F0BFFA012141F20E2000F0BAFA03209E
:104F2000009008230022114601902E48007800F0DE
:104F300049FB04F4805088B14FF480511048FBF7CE
:104F4000F3FFC0F10100C5B22A464FF480510C486E
:104F5000FBF7FBFF224800F06BFB45E050E0000050
:104F6000A1000020000C0140A2000020BE00002093
:104F7000D6000020C6000020CA0000200801002042
:104F800000100140A80000201F010020F8000020B0
:104F900000F60900EE000020C200002008000240D8
:104FA0000024014000080140004C0020084C002073
:104FB000184C002014010020770000202801002058
:104FC000290100202B000020C00600205D000020E9
:104FD00031000020340300202A0100203900002085
:104FE000B4050020A000002043490870434942480E
:104FF0000078FDF7F7FF32214FF40060FDF70BFE5C
:1050000004F4804038B1FDF7A5FF4FF496714FF4DA
:105010008040FDF700FE04F4004038B1012038491B
:105020000870384938480078FDF70DFF04F48030E7
:10503000B0B136480078401E354908700120334928
:105040000870334800783049087031480278411CB4
:105050002C4800F013FB03214FF40040FDF7DBFD6B
:1050600004F4005088B300202A4908702A480078C8
:10507000322805DC28480078401C2749087004E0E5
:10508000012000F027F800F02AF824480078B4281E
:1050900005DC22480078401C204908700FE0012000
:1050A0001F49087000201D490870FDF72BFE00F015
:1050B000E7F94FF4FA614FF40060FDF7ACFD42F2FE
:1050C00010714FF40050FDF7A6FD7CBD10B5FCF744
:1050D000FAFC10BD00F0010181F3138870471148FC
:1050E000006800F4E06010490843001D0D490860A5
:1050F000BFF3408F00BFFEE739000020B405002059
:105100002A000020C00700205E00002030000020A0
:10511000B402002029010020280100202A010020DB
:10512000140100200CED00E00000FA05F8B5064679
:105130000C46154604200090002708E021883046E0
:10514000FBF77BFC0090B81C87B2B61CA41CAF42D6
:1051500003DA9DF800000428F0D02846F8BD2DE9B8
:10516000F04FA1B00646894614460025A846042003
:105170000090FBF720FB4FEA962A4FEA8A2AC6F3F3
:10518000090BCBF58067BC4202D84FF001080AE05A
:10519000E51BC5F3090018B9012000EB952802E0D2
:1051A000022000EB9528002505E00AEB8520FBF79F
:1051B00041FB00906D1C4545F7D39DF80000042885
:1051C00004D04FF0FF3021B0BDE8F08F22464946B1
:1051D00001A800F053FA04F0010010B104F1010835
:1051E00000E0A0461FFA88F201A93046FFF79EFFB3
:1051F000FBF7EEFA2046E6E710B50346002003E091
:1052000013F8014B0C54401C9042F9DB10BD000018
:10521000704700EB8002910000E0491E0029FCD19C
:10522000704770B50446FA48007850B30025002650
:1052300023E004F0800020B18021F648FBF781FED6
:1052400003E08021F348FBF77EFE6006040E68064B
:10525000050E2021EF48FBF774FE1420FFF7D9FF5D
:105260004021EC48FBF753FE08B145F00105202131
:10527000E848FBF768FE701CC6B2082ED9DB28464A
:1052800070BD00BF0221E448FCF783FD0028F9D07F
:105290002146E148FCF72AFD00BF0121DE48FCF76A
:1052A00078FD0028F9D0DC48FCF722FDC0B2E7E722
:1052B00010B54FF47A70D949086000BF1021D54865
:1052C000FBF741FE4420FFF7ACFF0020FFF7A9FFEA
:1052D00004461021CF48FBF734FEFCF7F4FBCF481F
:1052E0000068401ECD490860FF2C03D008460068C6
:1052F0000028E3D1C948006810B90020C8490870E7
:1053000010BD70B504460D46FFF7D2FF1021C1480D
:10531000FBF719FE4420FFF784FF04E00020FFF7AD
:1053200080FF04F8010B2800A5F10101CDB2F5D1F1
:105330001021B848FBF705FE70BD70B504460D4658
:10534000FFF7B6FF1021B348FBF7FDFD03E014F8AB
:10535000010BFFF766FF2800A5F10101CDB2F6D1E0
:105360001021AC48FBF7EDFD70BD08B534208DF879
:10537000000002208DF8010002216846FFF7DDFFE2
:1053800008BD08B534208DF8000008208DF8010014
:1053900002216846FFF7D1FF08BD38B5044620203A
:1053A0008DF8000000208DF801008DF802008DF8C6
:1053B000030004216846FFF7C0FF09212046FFF7DC
:1053C000A0FF38BD2DE9FE4F04460D4616461F4688
:1053D000DDE90D9ADDF8308013208DF800008DF89E
:1053E00001408DF802508DF803608DF804708DF83F
:1053F00005808DF806908DF807A008216846FFF714
:105400009CFF08216846FFF77CFFBDE8FE8F3EB594
:10541000002408E0601C84B2824908192946FFF77D
:105420008CFF601984B27F48055D002DF2D1002009
:105430006722CDE900206023612201460290FFF738
:10544000C1FF3EBD01464FF4FA5201FB02F000E0FD
:10545000401E0028FCD1704710B540217248FBF770
:1054600070FD0A20FFF7D5FE40216F48FBF76BFD6A
:1054700010216848FBF765FD0A20FFF7E3FF10BD28
:1054800010B5FFF7E9FFFFF7C2FF6848FFF785FF98
:1054900010BD7CB504460D4611208DF80000201289
:1054A0008DF8010001208DF80200E0B28DF80300B4
:1054B0008DF8045005216846FFF73FFF7CBD38B5E5
:1054C000044612208DF800008DF8010002208DF8AE
:1054D00002000D208DF8030004216846FFF72DFF20
:1054E00003212046FFF70DFF38BD08B515208DF8C4
:1054F000000002208DF8010002216846FFF71DFF21
:1055000008BD08B515208DF8000001208DF80100B8
:1055100002216846FFF711FF08BD38B50446012097
:10552000009001216846FFF708FF08212046FFF799
:10553000E8FE38BD38B504463320009001216846A6
:10554000FFF7FBFE03212046FFF7DBFE38BD2DE908
:10555000FC4105460C4616461F46A046FFF7C5FF10
:10556000FFF7CFFFFFF701FF10212A48FBF7EBFC05
:105570006620FFF756FE08F1010000F0FF08204604
:10558000FFF74FFE03E015F8010BFFF74AFE20007E
:10559000A4F10101CCB2F6D110211E48FBF7D1FCD9
:1055A00031208DF800008DF801608DF80270002028
:1055B0008DF803008DF8048005216846FFF7BDFED5
:1055C000BDE8FC812DE9FC4705460F4614461E4602
:1055D000DDE90A89FFF789FFFFF793FF32208DF895
:1055E00000008DF801508DF8027020128DF8030034
:1055F000E0B28DF804008DF805608DF806808DF816
:10560000079008216846FFF798FEBDE8FC87000078
:10561000380100200008014000300140A8020020AD
:10562000140100203901002000100140000D00206D
:1056300070B50446FFF799FEFFF73AFE10210E48B9
:10564000FBF781FC7720FFF7ECFD0020FFF7E9FD79
:1056500005462E4604E00020FFF7E3FD04F8010BA9
:105660002800A5F10101CDB2F5D110210248FBF7C8
:1056700068FC304670BD00000008014040EA0103AC
:105680009B0703D009E008C9121F08C0042AFAD2F8
:1056900003E011F8013B00F8013B521EF9D27047BC
:1056A000D2B201E000F8012B491EFBD27047002264
:1056B000F6E710B513460A4604461946FFF7F0FF11
:1056C000204610BD80EA010210B502F00043400000
:1056D00022D04A001FD0010E01EB1261C0F3560028
:1056E000C2F3560240F4000042F40002A0FB022084
:1056F00000047F39140400D0401C50EA124001D449
:105700004000491EC2B20C0604EBD010401C4008F9
:10571000802A02D003E0002010BD20F00100002903
:1057200000DA0020184310BD20F00040C10DC0F386
:10573000160040F400007F2901DA00207047962906
:1057400003DCC1F19601C840704796398840704724
:10575000064C074D06E0E06840F0010394E80700BE
:1057600098471034AC42F6D3FAF7C4FCA85A0008A4
:10577000C85A000870B58C1810F8015B15F00703C3
:1057800001D110F8013B2A1106D110F8012B03E0DA
:1057900010F8016B01F8016B5B1EF9D12B0705D4E2
:1057A0000023521E0DD401F8013BFAE710F8013B2B
:1057B000CB1A921C03E013F8015B01F8015B521E47
:1057C000F9D5A142D8D3002070BD02E008C8121F4D
:1057D00008C1002AFAD170477047002001E001C1DA
:1057E000121F002AFBD1704710B5002821D0114BA1
:1057F0000022001F196803E0814203D80A46496865
:105800000029F9D152B11368841A9C4204D100686E
:1058100018441060104602E0506000E0186039B192
:1058200002680B1A934203D10B681A44026049685C
:10583000416010BDAC020020F0B50B30154D20F0DA
:1058400007010024144A0FE003688B420BD38B42FC
:1058500005D95E1A43184768C3E9006700E043684A
:10586000136002C004E0021D10680028ECD120463D
:10587000002802D1286808B10020F0BD064A074878
:105880001060074A121A22F00702C0E90024012022
:105890002860D7E7B0020020AC020020140D0020E1
:1058A000100F002000C0C101C30302C2C60607C713
:1058B00005C5C404CC0C0DCD0FCFCE0E0ACACB0B40
:1058C000C90908C8D81819D91BDBDA1A1EDEDF1F70
:1058D000DD1D1CDC14D4D515D71716D6D21213D360
:1058E00011D1D010F03031F133F3F23236F6F73710
:1058F000F53534F43CFCFD3DFF3F3EFEFA3A3BFB00
:1059000039F9F83828E8E929EB2B2AEAEE2E2FEFAF
:105910002DEDEC2CE42425E527E7E62622E2E3231F
:10592000E12120E0A06061A163A3A26266A6A7674F
:10593000A56564A46CACAD6DAF6F6EAEAA6A6BABBF
:1059400069A9A86878B8B979BB7B7ABABE7E7FBFEF
:105950007DBDBC7CB47475B577B7B67672B2B373DF
:10596000B17170B05090915193535292965657978F
:10597000559594549C5C5D9D5F9F9E5E5A9A9B5B7F
:1059800099595898884849894B8B8A4A4E8E8F4F2F
:105990008D4D4C8C4484854587474686824243839F
:1059A0004181804000C1814001C0804101C08041EF
:1059B00000C1814001C0804100C1814000C18140DF
:1059C00001C0804101C0804100C1814000C18140CF
:1059D00001C0804100C1814001C0804101C08041BF
:1059E00000C1814001C0804100C1814000C18140AF
:1059F00001C0804100C1814001C0804101C080419F
:105A000000C1814000C1814001C0804101C080418E
:105A100000C1814001C0804100C1814000C181407E
:105A200001C0804101C0804100C1814000C181406E
:105A300001C0804100C1814001C0804101C080415E
:105A400000C1814000C1814001C0804101C080414E
:105A500000C1814001C0804100C1814000C181403E
:105A600001C0804100C1814001C0804101C080412E
:105A700000C1814001C0804100C1814000C181401E
:105A800001C0804101C0804100C1814000C181400E
:105A900001C0804100C1814001C0804101C08041FE
:105AA00000C1814004640000C85A000800000020C2
:105AB000B4020000745700083C5C0008B4020020E7
:105AC0005C100000DA570008412D010203040410A5
:105AD00009060708090204060884A24A0469188A0C
