:020000040800F2
:100000002012002001010008FD1F0008FF1F00084A
:1000100003200008072000080B2000080000000053
:100020000000000000000000000000000F20000899
:10003000112000080000000013200008152000080F
:100040001B0100081B0100081B0100081B01000820
:100050001B0100081B0100081B0100081B01000810
:100060001B0100081B010008192000081B010008E3
:100070001B0100081B0100081B0100081B010008F0
:100080001B0100081B0100081B0100081B010008E0
:100090001B0100081B0100081B0100087520000857
:1000A0001B0100081B0100081B0100081B010008C0
:1000B0001B0100081B0100081B0100081B010008B0
:1000C0001B0100081B0100081B0100081B010008A0
:1000D0001B0100087720000807210008E52100081F
:1000E000172000081B0100081B010008DFF80CD0D6
:1000F00005F084FA00480047E11F000820120020A4
:100100000648804706480047FEE7FEE7FEE7FEE7B1
:10011000FEE7FEE7FEE7FEE7FEE7FEE7DF1E00087C
:10012000ED00000831490143314A1160704770B554
:10013000002100230F22C47804B32D4C246804F45A
:10014000E064C4F5E064210AC1F10403CA404478C4
:1001500004FA03F18478144021430901254C067800
:10016000A155047804F01F050124AC4005786D11F9
:10017000AD0005F1E025C5F8004109E0047804F080
:100180001F050124AC401C4D0678761145F8264029
:1001900070BD1A4A0A400243154B1B1F1A60704774
:1001A00039B1134A121D12680243114B1B1D1A600C
:1001B00006E00F4A121D126882430D4B1B1D1A6088
:1001C0007047042808D14FF0E021096941F004018B
:1001D0004FF0E022116107E04FF0E021096921F0C2
:1001E00004014FF0E0221161704700000000FA05A1
:1001F0000CED00E000E400E080E100E080FFFF1F84
:1002000010B50446FA48844208D10121401501F096
:10021000C1F80021601501F0BDF817E0F5488442EF
:1002200008D10121001501F0B5F80021201501F0D9
:10023000B1F80BE0F048844208D10121C80301F075
:10024000A9F800214FF4004001F0A4F810BD30B52A
:100250000246002000235068E84C20400D790C68CD
:1002600044EA0524204350609068E54C2040D1E9E1
:1002700002542C434D7944EA450420439060D06AEF
:1002800020F470000C7C641EE4B2234340EA035067
:10029000D06230BD00210160017141718160C16097
:1002A00001210174704721B1826842F0010282602D
:1002B00003E0826822F001028260704721B1826807
:1002C00042F48072826003E0826822F4807282606D
:1002D000704710B50023CBB21AB144681C43446088
:1002E00002E044689C43446010BD816841F008010D
:1002F00081607047014600208A6802F008020AB156
:10030000012000E000207047816841F00401816015
:100310007047014600208A6802F004020AB10120F9
:1003200000E00020704721B1826842F4A0028260A0
:1003300003E0826822F4A002826070470146002038
:100340008A6802F480020AB1012000E000207047B0
:1003500010B50A4600210023416821F46041531E74
:1003600041EA4331416010BD21B1426842F400626C
:10037000426003E0426822F4006242607047F0B5D8
:1003800004460D4600200021092D11DDE068A5F18D
:100390000A0606EB4607072606FA07F18843A5F189
:1003A0000A0606EB460603FA06F10843E0600CE095
:1003B000206905EB4507072606FA07F1884305EB98
:1003C000450603FA06F108432061072A0FDA606B3D
:1003D000561E06EB86071F2606FA07F18843561EAF
:1003E00006EB860605FA06F10843606322E00D2A53
:1003F0000FDA206BD61F06EB86071F2606FA07F1D9
:100400008843D61F06EB860605FA06F108432063EB
:1004100010E0E06AA2F10D0606EB86071F2606FA39
:1004200007F18843A2F10D0606EB860605FA06F1F0
:100430000843E062F0BD21B1826842F4801282601C
:1004400003E0826822F48012826070470146C86C23
:1004500080B2704766484C300068704721B14268EE
:1004600042F48062426003E0426822F480624260AB
:10047000704721B1426842F48052426003E0426812
:1004800022F48052426070470A460021816821F4BC
:10049000E04111438160704721B1826842F400421B
:1004A000826003E0826822F400428260704721B1DA
:1004B000826842F40212826003E0826822F402122F
:1004C00082607047014600208A6802F400120AB177
:1004D000012000E000207047F0B5044615460020DA
:1004E00000220026092911DDE068A1F10A0707EBC7
:1004F000470C072707FA0CF29043A1F10A0707EB14
:10050000470703FA07F21043E0600CE0206901EBB3
:10051000410C072707FA0CF2904301EB410703FA5D
:1005200007F210432061A06BC0F30156EF1C06F1E7
:10053000010CA7EB0C0707EB870C1F2707FA0CF23F
:100540009043EF1C06F1010CA7EB0C0707EB8707A4
:1005500001FA07F21043A063F0BD10B50A4600216E
:100560000023816B21F44011531E41EA0351816342
:1005700010BD08B5002300930090009B0B4400932E
:10058000009B1A6008BD08B502460020009000924A
:1005900001F12800009B184400900098006880B288
:1005A00008BD0A4600214168164B194011434160BD
:1005B00070474162826270470A460021416821F01B
:1005C0001F0111434160704740B109490831096872
:1005D00041F40001064A0832116007E0044908317D
:1005E000096821F40001024A0832116070470000D6
:1005F0000024014000280140003C0140FFFEF0FFC4
:10060000FDF7F1FFFFFD3FFF0246002013680B409E
:100610000BB1012000E000207047CA430260704720
:1006200070B502460020002300240B125568CEB29C
:1006300005EA060415681D4015B10CB1012000E063
:10064000002070BD00220A12D343036070470000EF
:10065000002044490860091D0860091D0860091D43
:10066000086041483F4914310860704700213D4906
:100670008279002A3AD00A46126803689A430B46E8
:100680001A600A1D126803689A430B1D1A600279EA
:1006900011440A6803681A430A60324A0832126831
:1006A00003689A432F4B08331A601A1D12680368B7
:1006B0009A432C4B0C331A604279102A0ED11A1F20
:1006C000126803681A43274B08331A601A1D126810
:1006D00003681A43234B0C331A600DE02149427919
:1006E00011440A6803681A430A6005E0027911445C
:1006F0000A6803689A430A6070470021016001712B
:100700000C2141710021817170471649103109682F
:100710000143144A10321160704701460020114A0B
:10072000143212680A400AB1012000E0002070472C
:100730000C49143108607047014600200022094B23
:100740001B6803EA0102074B14331B680B4013B10B
:100750000AB1012000E0002070470249143108600E
:100760007047000000040140FFFF0F000146002019
:10077000FE4A106800F03800084310607047FB49DB
:10078000096821F00801F94A11601146096801431E
:1007900011607047F549096821F01001F34A1160B2
:1007A00011460968014311607047F148EF494860FC
:1007B000F04848607047EE48EC494860ED484860B2
:1007C0007047EA48006940F08000E84908617047D6
:1007D000E648006940F08000E44908617047042061
:1007E000E249C96801F0010109B101200EE0DF49C9
:1007F000C96801F0040109B1022007E0DB49C968BA
:1008000001F0100109B1032000E00420704700B599
:1008100002460423FFF7E3FF034603E0FFF7DFFF91
:100820000346521E012B01D1002AF7D102B905233C
:10083000184600BD30B5044604254FF43020FFF7BC
:10084000E6FF0546042D17D1C848006940F00200B4
:10085000C649086108464461006940F040000861EB
:100860004FF43020FFF7D3FF0546C048006941F63A
:10087000FD710840BD490861284630BD10B504240B
:100880004FF43020FFF7C3FF0446042C16D1B748BD
:10089000006940F00400B54908610846006940F06D
:1008A000400008614FF43020FFF7B1FF0446AF4825
:1008B000006941F6FB710840AC490861204610BD53
:1008C00000B502460423FFF78AFF034603E0FFF763
:1008D00086FF0346521E012B01D1002AF7D102B92F
:1008E0000523184600BD10B504244FF43020FFF74F
:1008F000E7FF0446042C16D19C48006940F0040030
:100900009A4908610846006940F0400008614FF4C8
:100910003020FFF7D5FF04469448006941F6FB718B
:10092000084092490861204610BD00208F49C969DE
:1009300001F0020109B1012000E00020704730B54C
:10094000A5250424FFF7F1FF00B100254FF4302066
:10095000FFF75DFF0446042C3AD18548834988603F
:10096000844888600846006940F020000861084615
:10097000006940F0400008614FF43020FFF747FF66
:100980000446042C1BD17948006941F6DF71084008
:10099000764908610846006940F010000861764811
:1009A0000580E002FFF733FF0446052C10D06F48A6
:1009B000006941F6EF7108406C49086108E0052CB8
:1009C00006D06A48006941F6EF710840674908613E
:1009D000204630BD78B506460C4604250020009020
:1009E000E802FFF714FF0546042D24D15F48006993
:1009F00040F001005D4908613480E802FFF707FF1D
:100A00000546042D10D1B01C0090200C00990880E0
:100A1000E802FFF7FCFE05465448006941F6FE7106
:100A200008405249086106E05048006941F6FE71ED
:100A300008404E490861284678BD70B504460D4609
:100A40000426F002FFF7E3FE0646042E11D14748C4
:100A5000006940F00100454908612580F002FFF778
:100A6000D6FE06464148006941F6FE7108403F49FE
:100A70000861304670BD70B505460E460424E0029C
:100A8000FFF7C5FE0446042C17D139483749886062
:100A9000384888600846006940F0100008612E80E0
:100AA000E002FFF7B4FE0446052C06D02F4800698B
:100AB00041F6EF7108402D490861204670BD2DE9CF
:100AC000F04304464FF6FF763746B046B14604255C
:100AD000E443E6B2C4F30727C4F307484FEA1469B6
:100AE000E802FFF794FE0546042D49D120481F492E
:100AF0008860204888600846006940F0100008615E
:100B0000FF2E06D01C4808300680E802FFF77FFE63
:100B10000546042D08D1FF2F06D017480A3007805C
:100B2000E802FFF774FE0546042D0AD1B8F1FF0F65
:100B300007D011480C30A0F80080E802FFF767FEEC
:100B40000546042D0AD1B9F1FF0F07D00A480E302F
:100B5000A0F80090E802FFF75AFE0546052D0FD0D9
:100B60000248006941F6EF71084007E000200240AA
:100B700023016745AB89EFCD00F8FF1F6649086187
:100B80002846BDE8F08330B5054604244FF43020F4
:100B9000FFF73DFE0446042C41D160485E49886061
:100BA0005F4888600846006940F0200008610846F8
:100BB000006940F0400008614FF43020FFF727FE45
:100BC0000446042C22D15448006941F6DF710840E4
:100BD000514908610846006940F0100008611DB1E4
:100BE00000205049088002E0A5204E4908804FF4BB
:100BF0003020FFF70CFE0446052C10D04648006953
:100C000041F6EF7108404449086108E0052C06D020
:100C10004148006941F6DF7108403F4908612046BC
:100C200030BDF0B505460E46174604243B483A4908
:100C300088603B488860E002FFF7E9FD0446042C29
:100C400019D13548006940F010003349086147F078
:100C5000F800304328433349891C0880E002FFF73D
:100C6000D6FD0446052C06D02B48006941F6EF71ED
:100C70000840294908612046F0BD2748C06980081E
:100C800070472548006A704700202349096801F031
:100C9000200109B1012000E00020704729B11E4A5F
:100CA000126902431C4B1A6104E01B4A1269824319
:100CB000194B1A61704701460020012908D1164AD4
:100CC000D26902F001020AB1012008E0002006E02A
:100CD000114AD2680A400AB1012000E000207047A2
:100CE0000D49C860704704200B49C96801F0010133
:100CF00009B101200EE00849C96801F0040109B1F9
:100D0000022007E00449C96801F0100109B103207D
:100D100000E00420704700000020024023016745E6
:100D2000AB89EFCD00F8FF1F10B50446CC488442D4
:100D300008D10121042000F02DFB0021042000F047
:100D400029FB46E0C748844208D10121082000F071
:100D500021FB0021082000F01DFB3AE0C24884423C
:100D600008D10121102000F015FB0021102000F017
:100D700011FB2EE0BD48844208D10121202000F063
:100D800009FB0021202000F005FB22E0B848844246
:100D900008D10121402000F0FDFA0021402000F0A0
:100DA000F9FA16E0B348844208D10121802000F00E
:100DB000F1FA0021802000F0EDFA0AE0AE4884420A
:100DC00007D10121801500F0E5FA0021A01500F0FF
:100DD000E1FA10BD10B50121084600F0DBFA002150
:100DE000012000F0D7FA10BD2DE9F04102460025A0
:100DF0000026002000230024002791F803C00CF0F7
:100E00000F0591F803C00CF0100CBCF1000F03D0DB
:100E100091F802C04CEA050591F800C0BCF1000F42
:100E200031D0146800202BE04FF0010C0CFA00F3D5
:100E3000B1F800C00CEA03069E4220D183004FF0B7
:100E40000F0C0CFA03F7BC4305FA03FC4CEA04044C
:100E500091F803C0BCF1280F06D14FF0010C0CFA39
:100E600000FCC2F814C00AE091F803C0BCF1480FBE
:100E700005D14FF0010C0CFA00FCC2F810C0401C68
:100E80000828D1D31460B1F800C0BCF1FF0F34DDE5
:100E9000546800202EE000F1080C4FF0010808FA19
:100EA0000CF3B1F800C00CEA03069E4221D1830086
:100EB0004FF00F0C0CFA03F7BC4305FA03FC4CEAA5
:100EC000040491F803C0BCF1280F05D100F1080C0F
:100ED00008FA0CF8C2F8148091F803C0BCF1480F6E
:100EE00007D100F1080C4FF0010808FA0CF8C2F81D
:100EF0001080401C0828CED35460BDE8F0814FF626
:100F0000FF710180022181700421C1707047024687
:100F1000002093680B400BB1012000E000207047D7
:100F20000146886880B2704702460020D3680B40B3
:100F30000BB1012000E0002070470146C86880B274
:100F4000704701617047416170470AB1016100E07B
:100F500041617047C16070474FF480320A4382613B
:100F60008161826182698269704702460020434B39
:100F700018684FF68073184040EA021008433F4B50
:100F8000186070473E49C8617047F0B50A460023B3
:100F900000240021002500F00046B6F1004F02D1E8
:100FA000364EF16901E0354E7168C0F3034583B2F6
:100FB00000F44016B6F5401F08D121F070612F4EA5
:100FC000766826F070662D4F7E6012E000F4801681
:100FD000B6F5801F06D1032606FA05F4A14341F0B9
:100FE000706106E0460D360103FA06F6B14341F0A2
:100FF000706122B1460D360103FA06F6314300F066
:101000000046B6F1004F02D11C4EF16101E01B4ECB
:101010007160F0BD30B500228B071C0F0F2303FA5F
:1010200004F2164B08338C1053F824309343134CBE
:1010300008348D1044F8253023468C1053F82430A2
:101040008C07240F00FA04F423430C4C08348D1051
:1010500044F8253030BD0A49DC3108607047000093
:1010600000080140000C0140001001400014014044
:1010700000180140001C0140002001400000014018
:1010800000002042DF48006840F00100DD490860B0
:1010900008464068DC490840DA494860084600686C
:1010A000DA490840D74908600846006820F48020E3
:1010B00008600846406820F4FE0048604FF41F00B6
:1010C00088607047CF49096821F48031CD4A1160AA
:1010D0001146096821F480211160B0F5803F03D0EA
:1010E000B0F5802F0ED106E0C649096841F4803181
:1010F000C44A116007E0C349096841F4A021C14A0C
:10110000116000E000BF00BF704710B5014600222B
:10111000002300204A11012A02D1BA4C236806E0BC
:10112000022A02D1B74C236A01E0B64C636A01F08F
:101130001F02012494401C400CB1012000E000205B
:1011400010BD38B5002000900024002500BF3120DC
:10115000FFF7DBFF05460098401C00900098B0F5B3
:10116000A06F01D0002DF2D03120FFF7CEFF08B1E3
:10117000012400E00024204638BD01460020A14A99
:10118000106820F0F80040EAC10010607047A049E4
:1011900008607047024600209A4B586820F47C1083
:1011A00042EA01031843974B586070479849086614
:1011B000704701460020934A506820F0030008431E
:1011C000506070478F48406800F00C00704701463F
:1011D00000208C4A506820F0F000084350607047AF
:1011E00001460020874A506820F4E06008435060C0
:1011F000704701460020834A506820F4605040EA5E
:10120000C1005060704729B17E4A527A02437D4B3B
:101210005A7204E07B4A527A82437A4B5A72704780
:101220007B49D8310860704701460020754A5068F4
:1012300020F440400843506070470021714A20323A
:101240001170704A82F82010012802D004280AD1B7
:1012500004E001216B4A2032117005E00521694A42
:101260002032117000E000BF00BF7047694908607C
:1012700070476449096A0143624A116270476549CF
:1012800044390860704730B5002100220024002353
:101290005C4D6D6805F00C0121B1042905D00829C9
:1012A00023D105E05C4D056022E05B4D05601FE049
:1012B000544D6D6805F47012524D6D6805F480341C
:1012C000022505EB92421CB9544D554305600BE0D5
:1012D0004C4D6D6805F400351DB1504D554305600A
:1012E00002E04D4D5543056002E04B4D056000BFE7
:1012F00000BF444D6D6805F0F0010909484D6B5C75
:101300000568DD4045603F4D6D6805F4E061090A00
:10131000434D6B5C4568DD4085603A4D6D6805F472
:101320006051C90A3E4D6B5C4568DD40C560354D76
:101330006D6805F44041890B3A4D6B5CC568B5FB9F
:10134000F3F5056130BD29B12E4A526902432D4B98
:101350005A6104E02B4A526982432A4B5A61704712
:1013600029B1284A92690243264B9A6104E0254A32
:1013700092698243234B9A61704729B1214AD2690D
:101380000243204BDA6104E01E4AD26982431D4BBE
:10139000DA61704729B11B4AD2680243194BDA60FF
:1013A00004E0184AD2688243164BDA60704729B1CC
:1013B000144A12690243134B1A6104E0114A12697C
:1013C0008243104B1A6170471249403908607047D8
:1013D0000F49C86470470B49C87170470948406A93
:1013E00040F0807007494862704701460020054A76
:1013F00092680A400AB1012000E0002070470149CC
:1014000088727047001002400000FFF8FFFFF6FEF0
:10141000000042428004424200127A0000093D006E
:10142000000000201000002010B50446F748844258
:1014300009D101218803FFF7ADFF00214FF480405F
:10144000FFF7A8FF32E0F248844209D101214804A5
:10145000FFF7ADFF00214FF40030FFF7A8FF25E0B4
:10146000EC48844209D101218804FFF7A0FF002144
:101470004FF48020FFF79BFF18E0E748844209D132
:101480000121C804FFF793FF00214FF40020FFF76C
:101490008EFF0BE0E148844208D101210805FFF7E7
:1014A00086FF00214FF48010FFF781FF10BD2DE96A
:1014B000F04786B005460E460024A24600BFA1466E
:1014C0000027B08900B100BF2F462C8A4CF6FF7070
:1014D0000440F08804432C82AC894EF6F31004409B
:1014E000B08831890843718908430443AC81AC8AD0
:1014F0004FF6FF400440B0890443AC8201A8FFF7D7
:10150000C2FEC248874202D1DDF810A001E0DDF83A
:101510000CA0A88900F4004040B10AEBCA0000EB1F
:101520000A1031684900B0FBF1F807E00AEBCA0085
:1015300000EB0A1031688900B0FBF1F86420B8FBB9
:10154000F0F004012009642101FB1089A88900F44E
:10155000004040B1322000EBC900B0FBF1F000F0D8
:101560000700044308E0322000EB09106421B0FBBF
:10157000F1F000F00F0004432C8106B0BDE8F087C5
:101580004FF41651016000218180C18001810C213E
:10159000418100218181704710B502460020108AE8
:1015A0004FF2FF0318400B884C8823438C88234359
:1015B000CC8823431843108210BD00210180418054
:1015C0008180C180704721B1828942F400528281BA
:1015D00004E082894DF6FF731A4082817047F0B5AE
:1015E0000346002400260025002040F66A17B94271
:1015F00000D100BF1846C1F3421401F01F060127B5
:1016000007FA06F5012C01D10C3004E0022C01D1BF
:10161000103000E014301AB107682F43076002E071
:101620000768AF430760F0BD1AB1838A0B4383821A
:1016300002E0838A8B4383827047028A4FF6F073FD
:101640001A400282028A0A430282704782894FF25C
:10165000FF731A40828182890A438281704721B1D7
:10166000828942F00202828104E082894FF6FD7392
:101670001A4082817047028A4FF6DF731A40028255
:10168000028A0A430282704721B1028A42F48042F0
:10169000028204E0028A4BF6FF731A40028270470E
:1016A00002460020B1F5007F00D100BF13880B4037
:1016B0000BB1012000E00020704770B504460D46D4
:1016C000574EC5F30800A08000E0761E802120461A
:1016D000FFF7E6FF08B9002EF7D170BD10B504463C
:1016E00000BF20212046FFF7DBFF0028F9D0A088AB
:1016F000C0F3080010BD818941F00101818170476C
:10170000028BD2B20283028B42EA0122028370472B
:10171000028B02F47F420283028B0A4302837047EA
:1017200021B1828A42F02002828204E0828A4FF64E
:10173000DF731A408282704721B1828A42F0100220
:10174000828204E0828A4FF6EF731A4082827047E9
:1017500021B1828A42F00802828204E0828A4FF636
:10176000F7731A408282704721B1828942F40042A5
:10177000828103E08289C2F30E028281704721B127
:10178000828A42F40062828204E0828A4FF2FF730E
:101790001A4082827047828A4FF6FB731A40828217
:1017A000828A0A438282704721B1828A42F0020211
:1017B000828204E0828A4FF6FD731A40828270476B
:1017C00001F40072B2F5007F00D100BFCA4302806D
:1017D000704770B50246002400230025002040F623
:1017E0006A16B14200D100BFC1F3421501F01F03D8
:1017F000012606FA03F3012D02D19689334013E046
:10180000022D0FD1168A33400EE00000003801404F
:101810000044004000480040004C004000500040A0
:10182000FFFF4F00968A33400C12012606FA04F49B
:101830001688344013B10CB1012000E0002070BDC7
:1018400010B50022002340F66A14A14200D100BF67
:101850000A1201249440A3B2DC43048010BD0000AE
:1018600001684FF6FE721140016000210160416085
:101870008160C1608D49884208D18C490839496826
:1018800041F00F01894A083A51608AE087491431D2
:10189000884208D185490839496841F0F001834AF6
:1018A000083A51607DE081492831884208D17F495A
:1018B0000839496841F470617C4A083A516070E027
:1018C0007A493C31884208D178490839496841F45D
:1018D0007041764A083A516063E074495031884259
:1018E00008D172490839496841F470216F4A083AB1
:1018F000516056E06D496431884208D16B4908391E
:10190000496841F47001694A083A516049E0674901
:101910007831884208D165490839496841F07061D9
:10192000624A083A51603CE06149884206D1011F91
:10193000096841F00F01021F116032E05C49143167
:10194000884208D15A49091F096841F0F001584AF4
:10195000121F116025E056492831884208D15449A8
:10196000091F096841F47061514A121F116018E0A3
:101970004F493C31884208D14D49091F096841F45B
:1019800070414B4A121F11600BE0494950318842A7
:1019900007D14749091F096841F47021444A121FC1
:1019A0001160704710B50022026847F6F0739A4341
:1019B0000C6A8B6823430C6923434C6923438C696D
:1019C0002343CC6923434C6A23438C6A23431A4341
:1019D0000260CB6843600B6883604B68C36010BDD6
:1019E0000021016041608160C160016141618161EC
:1019F000C161016241628162704721B1026842F0B7
:101A00000102026004E002684FF6FE731A400260B1
:101A100070471AB103680B43036002E003688B430D
:101A200003607047416070470146486880B2704764
:101A300001460020002201F080531BB11C4B083BE3
:101A40001A6802E0194B083B1A6802EA01030BB15D
:101A5000012000E00020704700F0805119B11449C6
:101A6000091F086002E011490839486070470146C3
:101A70000020002201F080531BB10D4B083B1A6877
:101A800002E00A4B083B1A6802EA01030BB101208D
:101A900000E00020704700F0805119B10449091F8F
:101AA000086002E0014908394860704708000240B8
:101AB000080402400E49086070470D4948607047AD
:101AC0000B49886070474AF6AA20094908607047A8
:101AD0004CF6CC4006490860704701460020044A95
:101AE000D2680A400AB1012000E0002070470000DF
:101AF0000030004010B50446BE48844208D10121A0
:101B00008014FFF747FC0021A014FFF743FC16E008
:101B1000B948844208D101210014FFF748FC002194
:101B20002014FFF744FC0AE0B448844207D10121A5
:101B3000C013FFF73CFC0021E013FFF738FC10BD99
:101B400010B50022028802F441520B884C882343CE
:101B50008C882343CC8823430C8923434C8923431B
:101B60008C892343CC8923431A430280838B4FF211
:101B7000FF74234083830B8A038210BD2DE9F04F4D
:101B800085B005460C464FF0000902274FF00008CB
:101B90004FF0010B0026B246A88B4FF240010840DF
:101BA000A88302202884B5F81C90A068022801D1DF
:101BB00000BF38E0A08810B94FF0010B01E04FF0F2
:101BC000020B8D48854200D100E000BF6846FFF758
:101BD0005AFBDDF800A0E088B0F5007F0AD14FEA9B
:101BE0001A2000EB80004000A168B0FBF1F0401D1E
:101BF00086B20BE04FEA4B10BAFBF0F000EB80002E
:101C00004000A168B0FBF1F0401D86B20A20B6FB8F
:101C1000F0F606F00108A6EB0800C0F34F074FF6F8
:101C2000FF7000EA0828022F01DBFF2F02DD0227E8
:101C30004FF00008E08840EA080038432884A08874
:101C4000A1890843618808432188084340F4006063
:101C500040EA0909A5F81C9005B0BDE8F08F002105
:101C6000018041808180C180018141818181C18168
:101C70000721018270470021018041808180C1805D
:101C80000221816000218181704721B1028842F0E8
:101C90004002028004E002884FF6BF731A400280BF
:101CA000704721B1828B42F48062828304E0828B90
:101CB0004FF6FF331A408283704730B5002400236B
:101CC0000C110125A540ABB21AB185881D43858052
:101CD00002E085889D43858030BD1AB183880B431F
:101CE000838002E083888B438380704781817047C3
:101CF0000146888970474FF6FF62914204D00288FE
:101D000042F48072028004E002884FF6FF631A40BA
:101D10000280704721B1828842F00402828004E090
:101D200082884FF6FB731A408280704702884FF218
:101D3000FF731A40028002880A43028070470188BC
:101D400041F480510180704721B1028842F4005271
:101D5000028004E002884DF6FF731A40028070474B
:101D600002460020012901D0108B00E0908A7047C4
:101D70000146088A7047B1F5804F04D1028842F4C9
:101D80008042028004E002884BF6FF731A40028012
:101D900070470246002013890B400BB1012000E080
:101DA00000207047CA4302817047F0B50246002008
:101DB00000240023002501F00F070126BE40B4B225
:101DC0000B1101269E40B3B2968806EA03051689D8
:101DD000264016B10DB1012000E00020F0BD10B585
:101DE000002201F00F040123A3409AB2D3430381E0
:101DF00010BD00000030014000380040003C0040B1
:101E00000CB50020019000906C48006840F48030D0
:101E10006A49086000BF6948006800F4003000901B
:101E20000198401C0190009818B90198B0F5A06F76
:101E3000F1D16248006800F4003010B10120009038
:101E400001E0002000900098012843D15C48006820
:101E500040F010005A4908600846006820F003006E
:101E600008600846006840F0020008605348406877
:101E7000524948600846406848600846406840F457
:101E8000806048600846406820F47C10486008463E
:101E9000406840F4E81048600846006840F08070F0
:101EA000086000BF4548006800F000700028F9D0C5
:101EB0004248406820F003004049486008464068B6
:101EC00040F00200486000BF3C48406800F00C0051
:101ED0000828F9D10CBD10B5FFF792FF10BD10B561
:101EE0003648006840F00100344908600846406800
:101EF0003449084031494860084600683249084082
:101F00002E4908600846006820F4802008600846D2
:101F1000406820F4FE0048604FF41F008860FFF71F
:101F2000DAFF4FF000602949086010BD10B50021AC
:101F300000200022214B5B6803F00C0121B1042931
:101F400006D0082928D107E0214B224C236027E046
:101F50001F4B204C236023E0184B5B6803F4701088
:101F6000164B5B6803F48032022303EB904022B9E6
:101F7000194B4343174C23600DE0104B5B6803F48F
:101F8000003323B1144B4343124C236003E0104B46
:101F90004343104C236003E00D4B0E4C236000BF05
:101FA00000BF064B5B68C3F303130C4CE15C094BA9
:101FB0001B68CB40074C236010BD0000001002409E
:101FC000002002400000FFF8FFFFF6FE08ED00E0F1
:101FD00000127A001400002000093D0018000020C3
:101FE00000F0F8FC00200449087000F094FC01E0C7
:101FF00000F079FDFCE7000028000020704700BFDA
:10200000FEE700BFFEE700BFFEE700BFFEE7704748
:10201000704770477047704710B54FF4006000F08C
:1020200022FEA84803F055F9A648C07800F0080041
:1020300020B114214FF4006000F0EDFDA148C078FC
:1020400000F0100028B132214FF4805000F0E3FD81
:1020500009E09C48C07800F0200020B114214FF422
:10206000006000F0D8FD974803F033F91020FEF728
:1020700074FB10BD704710B540F225519248FFF730
:10208000A8FBC8B100209149087003214FF480607B
:1020900000F0C1FD8C48FFF721FB8D498D4A127875
:1020A00088548C480078401C8A49087040F22551B9
:1020B0008548FFF7C5FB25E040F227718248FFF70E
:1020C00088FB01281ED1844802780078401C824B8E
:1020D00018708248815C7C48FFF7EFFA7E480078F0
:1020E0007F49097888420DD1002240F22771764855
:1020F000FFF775FA002078490870794908700120C7
:102100007849087010BD10B540F225517648FFF7A8
:1021100060FBC8B10020754908707348FFF7DEFA0C
:10212000C1B27348734A1278815472480078401CD7
:102130007049087040F225516B48FFF781FB1E2162
:10214000042000F068FD4CE040F227716648FFF77C
:1021500040FB38B3684802780078401C664B187022
:102160006648815C6048FFF7A8FA40F225515E4856
:10217000FFF766FB6048007861490978884230DBE8
:10218000002240F227715848FFF729FA40F22771E0
:102190005548FFF755FB012240F226615248FFF7F0
:1021A0001EFA1EE040F226614F48FFF712FBC0B155
:1021B000002240F226614C48FFF711FA40F22661F6
:1021C0004948FFF73DFB02214E48FEF7BCFE0020C8
:1021D000494908704A49087001204B490870434931
:1021E000087010BD10B540F225514848FFF7F1FACC
:1021F000D0B10020464908704448FFF76FFAC1B2D9
:102200004448454A1278815443480078401C42496A
:10221000087040F225513D48FFF712FB03214FF4AF
:10222000803000F0F8FC4CE040F227713748FFF7AF
:10223000D0FA012827D1394802780078401C374B62
:1022400018703748815C3148FFF737FA40F2255162
:102250002E48FFF7F5FA314800783249097888426C
:102260002FDB002240F227712848FFF7B8F940F22F
:1022700027712648FFF7E4FA012240F2266123483D
:10228000FFF7ADF91DE040F226612048FFF7A1FA03
:10229000B8B1002240F226611C48FFF7A0F940F2D5
:1022A00026611A48FFF7CCFA4FF400411548FEF7B3
:1022B0004AFE0020194908701A49087001201A497D
:1022C000087010BD28060020003801402C000020B6
:1022D000A80300203200002038000020280500203C
:1022E000370000202F000020004400402B00002079
:1022F000280300203100002036000020A804002020
:1023000035000020000801402E0000200048004059
:102310002A000020A8020020300000203400002005
:1023200028040020330000202D00002010B5FEF707
:10233000A9FE4FF48030FEF7C5FEFEF702FFFE490E
:10234000087008460078012826D10020FEF73FFFDC
:102350000020FEF74EFF4FF48060FEF741FF0220A1
:10236000FEF704FA1020FEF715FA4FF4E0114FF4CF
:102370008030FEF70FFF0120FEF718FF00BF392065
:10238000FEF7C3FE0028FAD00220FEF712FF00BFBE
:10239000FEF718FF0828FBD14FF44040FEF744FF3A
:1023A00001210846FEF7DCFF10BD08B501213D20E4
:1023B000FEF7D6FF0121E148FEF7E7FD0121E048E5
:1023C000FEF7E3FD4FF48050ADF8000010208DF8CB
:1023D000030003208DF802006946DA48FEF704FD89
:1023E0002020ADF8000010208DF8030003208DF8A8
:1023F00002006946D348FEF7F7FC0120ADF8000063
:1024000048208DF803006946CF48FEF7EDFC042014
:10241000ADF800006946CB48FEF7E6FC4FF470606B
:10242000ADF800006946C948FEF7DEFC0121C84846
:10243000FEF7ABFDC748406820F02000C549486062
:102440000420ADF8000048208DF803006946C2481A
:10245000FEF7CAFC7820ADF8000048208DF8030094
:102460006946BA48FEF7C0FC0820ADF8000010200D
:102470008DF8030003208DF802006946B148FEF78D
:10248000B3FC0821AF48FEF75CFD4FF4E040ADF827
:10249000000010208DF8030003208DF8020069462B
:1024A000AA48FEF7A1FC4FF48051A848FEF749FD69
:1024B0004FF40051A548FEF744FD4FF48041A34876
:1024C000FEF73FFD0320ADF8000000208DF803006B
:1024D00069469C48FEF788FC0320ADF80000002008
:1024E0008DF8030069469948FEF77EFC1020ADF890
:1024F00000008DF8030003208DF802006946924821
:10250000FEF772FC10219048FEF71BFD1020ADF87D
:10251000000048208DF8030069468A48FEF764FCF5
:102520004020ADF8000010208DF8030003208DF846
:10253000020069468348FEF757FC0420ADF800000E
:1025400018208DF8030003208DF8020069467E48AC
:10255000FEF74AFC0820ADF8000004208DF80300C7
:1025600069467948FEF740FC0220ADF800001020D3
:102570008DF8030003208DF8020069467248FEF7CB
:1025800033FC4FF40070ADF8000018208DF8030004
:1025900003208DF8020069466B48FEF725FC4FF4D6
:1025A0008060ADF8000004208DF80300694666489D
:1025B000FEF71AFC4FF48060ADF8000018208DF88B
:1025C000030003208DF8020069465E48FEF70CFC0C
:1025D0004FF40060ADF8000004208DF80300694658
:1025E0005848FEF701FC4FF40040ADF80000102001
:1025F0008DF8030003208DF8020069465248FEF76B
:10260000F3FB08BD1CB51020FEF7A7F8042102203B
:10261000FEF700FD1020009000208DF804000C2033
:102620008DF8050001208DF806006846FEF71EF8BB
:102630001CBD08B54FF4A060FDF774FD25208DF892
:10264000000002208DF8010000208DF8020001201A
:102650008DF803006846FDF76AFD26208DF800001E
:1026600001208DF8010000208DF8020001208DF876
:1026700003006846FDF75BFD27208DF8000002206F
:102680008DF8010000208DF8020001208DF8030074
:102690006846FDF74CFD0A208DF8000000208DF8FB
:1026A00001008DF8020001208DF803006846FDF757
:1026B0003EFD00214FF00060FDF76BFD08BD00B549
:1026C00091B001210846FEF73EFE01214802FEF7C7
:1026D00047FE2248FFF7C4F821480690214807909A
:1026E000002008900420099000200A9080200B9080
:1026F00040000C9080000D9020200E9000020F9062
:102700000020109006A91548FFF74CF90020019011
:1027100001208DF808008DF809004FF46020039027
:102720000020049004208DF8140001A90C484C38B6
:10273000FDF78DFD072317E03D0000201000140079
:10274000000430000010014000080140000C01406E
:1027500000023000002004E00014014008000240A4
:102760004C2401403E00002001220A21AB48FDF725
:1027700006FE072302220821A848FDF700FE0723D2
:1027800003220B21A548FDF7FAFD072304220921A6
:10279000A248FDF7F4FD0121A048FDF78FFD0121BE
:1027A0009E48FDF780FD9D48FDF79FFD00BF9B48BB
:1027B000FDF7A0FD0028FAD19848FDF7A5FD00BF60
:1027C0009648FDF7A6FD0028FAD111B000BD00B56E
:1027D00087B001218803FEF7C3FD0020ADF8040097
:1027E000ADF806004FF40070ADF808000020ADF819
:1027F0000A0001A98A48FEF7CFFE4FF41650039055
:102800000020ADF81000ADF81200ADF81400ADF8DE
:1028100018000C20ADF8160003A98148FEF747FE0A
:1028200040F225517E48FEF7CBFF012240F22551B0
:102830007B48FEF7D4FE01217948FEF7C4FE07B0BD
:1028400000BD1FB501214804FEF797FD4FF4165057
:1028500000900020ADF80400ADF80600ADF80800C7
:10286000ADF80C000C20ADF80A0069466D48FEF783
:102870001EFE40F225516B48FEF7A2FF012240F2F6
:1028800025516848FEF7ABFE01216648FEF79BFE26
:102890001FBD1FB501218804FEF76FFD4FF41650D0
:1028A00000900020ADF80400ADF80600ADF8080077
:1028B000ADF80C000C20ADF80A0069465A48FEF746
:1028C000F6FD40F225515848FEF77AFF012240F20A
:1028D00025515548FEF783FE01215348FEF773FE4C
:1028E0001FBD10B50120FEF7C1FC00BF6120FEF73F
:1028F0000CFC0028FAD045F25550FFF7DBF8032016
:10290000FFF7DBF84FF4FA60FFF7DAF8FFF7DBF8D0
:10291000FFF7DEF810BD00B587B0012141F20500D8
:10292000FEF71EFD41480078B8B1A020ADF80400C4
:1029300010208DF8070003208DF8060001A93C48FF
:10294000FEF752FA4020ADF8040004208DF807008D
:1029500001A93748FEF748FA37E000213548FFF76C
:1029600094F9E020ADF8040018208DF8070003204A
:102970008DF8060001A92E48FEF736FA0020ADF8C2
:1029800008004FF48270ADF80A000020ADF80C008A
:10299000ADF80E000120ADF810004002ADF81200B5
:1029A0003820ADF814000020ADF816000720ADF86F
:1029B000180002A91F48FFF7C3F801211D48FFF7BF
:1029C00064F901211B48FFF7A5F9642002F0D6FC49
:1029D00007B000BD10B5FFF7A9FCFFF7E6FCFFF755
:1029E00011FEFFF726FEFFF76AFEFFF7F0FEFFF786
:1029F00028FFFFF790FFFFF774FF0F484FF0E0212B
:102A00004861002088610520086100F0C6F841F2A5
:102A10008831012000F0FFF810BD000000240140C3
:102A20000038014000440040004800403C000020C5
:102A30000008014000300140FEFFFF0010B5AA4829
:102A4000006818B1A848006802F043F902F0ECFAF7
:102A500010BDA54909680143A34A116070472DE9DB
:102A6000F0410746012000F03CF9A048006800282A
:102A700034D09E48046800262EE00025A088B84285
:102A800002D80020A08002E0A088C01BA080A088FF
:102A900040B9E08830B1206820B12068FFF7D9FF45
:102AA000E088A080A08808B1206848B91EB98F4985
:102AB000A068086001E0A068B0602546A46801E055
:102AC0002646A4683DB1A88810B92868FFF7C1FF61
:102AD000284602F0DFFD00BF002CCED1002000F020
:102AE00000F9BDE8F08170B500240025012000F058
:102AF000F8F84FF0E02084697D48B4FBF0F47D489D
:102B00000068844208D27B480068051B7A48006848
:102B100028447949086015E076480068844211D954
:102B200040F2654060436FF07F41A1EB8010704937
:102B3000B0FBF1F06F49096845186F4800682844F8
:102B40006D490860002000F0CCF815B12846FFF769
:102B500086FF012000F0C5F86648046066480068FA
:102B60006649884209D364480068401A624908608F
:102B700063480068401C62490860002000F0B1F81A
:102B8000FFF75CFF00205849086070BD5C4A12687E
:102B90000260594A12680A60704700205349086071
:102BA00070470146514A106804E002688A4200D129
:102BB00002E080680028F8D100BF70472DE9F0419D
:102BC00007460E463846FFF7ECFF04461CB1A680C8
:102BD0002046BDE8F0810C2002F084FD0446A4B13B
:102BE0002760A6800020E080A0604048006810B9FF
:102BF0003E48046007E03D48056800E0AD68A8680D
:102C00000028FBD1AC602046E3E70020E1E708B1F3
:102C100000210160704770B504460D46012000F0A8
:102C200060F829462046FFF7C9FF0646002000F05D
:102C300058F80EB1012070BD0020FCE770B50646C3
:102C40000D46012000F04DF829463046FFF7B6FF4B
:102C5000044604B1E580002000F043F80CB10120E7
:102C600070BD0020FCE770B50546012000F039F882
:102C70002846FFF796FF044614B12046FFF7C7FF2A
:102C8000002000F02EF80CB1012070BD0020FCE700
:102C900070B505460026012000F023F82846FFF70E
:102CA00080FF044604B1A688002000F01AF83046E0
:102CB00070BD70B50025012000F013F80B480468C2
:102CC00002E0681CC5B2A468002CFAD1002000F014
:102CD00008F8284670BD044909688143024A11601A
:102CE000704780F3108870474C0000204800002097
:102CF000401901005800002054000020005C260507
:102D00005000002038B50020009002226946FD489E
:102D100002F00EFA9DF80000FF2803D19DF8010093
:102D2000FF2804D02422F849F64802F001FA0222D2
:102D30006946F64802F0FCF99DF80000FF2803D12F
:102D40009DF80100FF2804D01822F149EF4802F055
:102D5000EFF9002445E0062094FBF0F1ED4AEC4841
:102D6000035D0546601C285C43EA002022F8110040
:102D7000062094FBF0F1E84A2B46A01C1B5CE01CEB
:102D8000285C43EA002022F81100062094FBF0F0B2
:102D9000114631F8100000EB80004000062194FB42
:102DA000F1F1DE4A42F82100062094FBF0F2DC4902
:102DB0002B46201D1B5C601D285C43EA002021F887
:102DC0001200062094FBF0F031F8100000EB8000B8
:102DD0004000062194FBF1F1D24A42F82100A01DE7
:102DE000C4B2182CB7DB0222CF49D04802F0A0F9B8
:102DF000CD480078CE490870CB484078FF2803D1F1
:102E00000020CC49087003E0C7484078C9490870E1
:102E100038BDF0B502460B46FF24FF25002600BF53
:102E20000BE012F8010B80EA0401C348405C80EA21
:102E30000504C248455C701CC6B29E42F1DB44EA00
:102E40000520F0BD70B505460C4629462046FFF723
:102E5000E0FFD0B9A078102816DCB9480078012826
:102E600012D12078C0F1FE00C6B2072E08DCA2788D
:102E700006EB4601B34B03EB4100E11C02F09AFB69
:102E80000020AF49087070BD00BF1022AD49AE48A8
:102E900002F090FB00BFF6E72DE9F04106460F4631
:102EA00090461D46022E1AD1002406E008EB0400CD
:102EB000385CA6490855601CC4B2AC42F6DBA44895
:102EC00005700221A348FEF73CF80120A2490870D2
:102ED000012240F22771A148FEF781FB1AE0012E82
:102EE00016D1002406E008EB0400385C9C49085524
:102EF000601CC4B2AC42F6DB9A48057000209A49C7
:102F00000870012240F227719848FEF768FB01E043
:102F1000BDE8F08100BFFBE72DE9F04781460F4691
:102F200015461E46089C84F800906770280AA07019
:102F3000E570300A2071667106212046FFF769FFAF
:102F4000804684F806804FEA1820E0710820BDE82A
:102F5000F08738B586480078002835D16A48807FE8
:102F6000FB2830DB6848807FFE282CDC81480090FD
:102F7000654890F82230002203217F480078FFF74F
:102F8000CBFF0446234600227A490320FFF784FF43
:102F90007A480078401C794908705B4890F8200016
:102FA0000978884205DD74480078401E724908702F
:102FB00005E0FE207049087000207049087001206B
:102FC0005F49087000BF00BF00BF69480078401C1F
:102FD0006749087008460078012801DB0020087066
:102FE00038BD2DE9F04107460C4620785049097854
:102FF00088427DD139462046FFF70BFF0028F8D1E3
:103000006078032843D1E078A17840EA012660790E
:10301000217940EA01205A490880207859490870EE
:1030200003204870564800784006000E8870084615
:103030008278554800EB46015248C01C02F0BAFAAB
:103040004F480088032202EB400081B24D48FFF751
:10305000E0FE05464A480088032202EB4000494A48
:103060001554290A46480088042202EB4000454ACC
:10307000115443480078052202EB4000C1B20023FE
:103080002C4802783F4802F0FEF9BDE8F0816078F4
:10309000062819D1A07850B9E078032807DC2079F8
:1030A000617940EA0120E178384A22F81100354878
:1030B000216801606168416000231E480278082190
:1030C000304802F0E0F9E0E76078102876D12D482A
:1030D00021680160A18881800621FFF79AFE0546DC
:1030E00028498D71280AC87100231248027800E02F
:1030F00081E00821234802F0C6F9E078042847DB84
:10310000012046E000C001087700002000C401084B
:103110005F000020DE000020E6000020B408002050
:10312000EE000020F80000201501002000C8010872
:103130009D000020A00000205058000850570008B3
:1031400026010020E40B0020184C0020A8040020D9
:1031500035000020000801402E00002000440040FF
:1031600028050020370000202F00002000380140F3
:103170002301002034070020240100202501002025
:103180009E00002034080020084C0020004C002045
:103190000020E178102901DA012100E00021084037
:1031A00068B1A279E11DFE4802F004FA1822FC4938
:1031B000FC4801F070FFFFF7A5FD66E71AE0E07834
:1031C000102801DB012000E00020E178222901DA4B
:1031D000012100E00021084060B1A279E11DF24820
:1031E00002F0E8F92422F049F04801F054FFFFF71B
:1031F00089FD4AE700BF2078F02862D16078102866
:103200005FD1E07822285CD139462046FFF701FEE5
:10321000002855D1E079412811D0E54821680160A6
:10322000A18881800621FFF7F4FD0546E0498D71F4
:10323000280AC871082300220220FFF72DFEDD486E
:103240000078FF280DD0DB48007850B1D9480078CD
:10325000E179884208D1E079402805DC607AFF28CE
:1032600002D0207AD3490870607AFF280AD1E07929
:10327000412804D0CF480078E179884202D1A07A71
:10328000CC4948700222CB49CB4801F004FFFFF73C
:1032900039FDCA48007890B1607AFF280FD1E079F3
:1032A000412804D0C3480078E179884207D102F070
:1032B00083F84FF4FA614FF40060FFF7ACFC00BFF5
:1032C000E3E6B948007E20285BD12178BC4800782D
:1032D0002038814255D139462046FFF79AFDE8BB98
:1032E000607803284CD1A078C8BBE078B8BB2079BF
:1032F000A8BBE078A17840EA01256079217940EA0D
:103300000120B0490880AE4800782038AE490870E6
:1033100003204870AB4800784006000E88700846CD
:103320008278AA4800EB4501A748C01C02F042F988
:10333000A4480088032202EB400081B2A248FFF7B4
:1033400068FD06469F480088032202EB40009E4A23
:103350001654310A9B480088042201E011E00FE076
:1033600002EB4000984A115496480078052202EB7F
:103370004000C1B2002396480278934802F083F8D7
:1033800000BF00BF81E610B50346002000BF02E089
:103390001A54441CE0B28842FADB10BD2DE9F0411A
:1033A00007460C4620788649097888427ED13946FE
:1033B0002046FFF72EFD0028F8D16078032843D17E
:1033C000E078A17840EA01266079217940EA01207D
:1033D000804908807A480078754908700320487051
:1033E0007C4800784006000E8870084682787A484B
:1033F00000EB46016E48C01C02F0DCF875480088FE
:10340000032202EB400081B26948FFF702FD054646
:1034100070480088032202EB4000654A1554290ACF
:103420006C480088042202EB4000614A115469484C
:103430000078052101EB4000C3B200225C49022064
:10344000FFF72AFDBDE8F0816078062818D1A07842
:1034500050B9E078032807DC2079617940EA01203F
:10346000E1785E4A22F811005148216801606168E4
:1034700041600823002201460220FFF70DFDE1E72D
:103480006078102839D14A4821680160A18881807C
:103490000621FFF7BEFC054645498D71280AC87113
:1034A000082300220220FFF7F7FC00E026E0E07886
:1034B00004280FDBE07810280CDAA279E11D3848E7
:1034C00002F078F818223649364801F0E4FDFFF79B
:1034D00019FCB7E7E07810280FDBE07822280CDA37
:1034E000A279E11D304802F065F824222E492F48C8
:1034F00001F0D1FDFFF706FCA4E700BF2078F0281B
:103500006ED1607810286BD1E07822287ED13946C0
:103510002046FFF77EFC002877D1E079412811D0C2
:10352000234821680160A18881800621FFF771FC92
:1035300005461F498D71280AC87108230022022000
:10354000FFF7AAFC1B480078FF280DD01948007827
:1035500050B118480078E179884208D1E0794028D4
:1035600005DC607AFF2802D0207A12490870607A60
:10357000FF280AD1E079412804D00E480078E1798B
:10358000884202D1A07A0B494870022209490A48B0
:1035900001F081FDFFF7B6FB08480078A0B320E0FA
:1035A0005F00002000C401087700002000C001086F
:1035B000340600201501002000C801081401002075
:1035C0009D0000209E00002034080020184C0020A0
:1035D000A0000020B4000020084C0020004C002077
:1035E00014E0607AFF280FD1E079412804D0FE482A
:1035F0000078E179884207D101F0DEFE4FF4FA61EC
:103600004FF40060FFF707FB00BF1BE7F748007EA1
:10361000202854D12178F6480078203881424ED1B4
:1036200039462046FFF7F5FBF0BB6078032844D10C
:10363000E078A17840EA01256079217940EA01200B
:10364000EC490880EA4800782038EB4908700320EC
:103650004870E84800784006000E88700846827876
:10366000E64800EB4501E448C01C01F0A3FFE14837
:103670000088032202EB400081B2DF48FFF7C9FB5C
:103680000646DC480088032202EB4000DA4A165462
:10369000310AD8480088042202EB4000D64A11546F
:1036A000D4480078052100E008E001EB4000C3B2F7
:1036B0000022D1490220FFF7EFFB00BFC2E600BFA6
:1036C000C0E6F0B504461D46002604EBC40000EB3E
:1036D0000410CB4F07EBC00020F8152000230BE0AF
:1036E00004EBC40000EB0410C54F07EBC00030F83A
:1036F00013000644581CC3B28B42F1DBB6FBF1F059
:1037000082B21046F0BD30B503460C4600210AE0F7
:1037100003EBC30000EB0310B94D05EBC00020F82C
:103720001120481CC1B2A142F2DB104630BD2DE988
:10373000F041B2B005460B461446002700210FE0C9
:10374000DFF8C0C23CF81500984200DA1846A042E3
:1037500000DD20462DF8110001F1010C0CF0FF01F5
:103760006429EDDB00211CE001F1010C0CF0FF02EB
:1037700011E03DF811C03DF81280C44507DB3DF86B
:1037800011603DF812C02DF811C02DF8126002F141
:10379000010C0CF0FF02642AEBDB01F1010C0CF0D0
:1037A000FF016429E0DB282106E03DF811C06744F1
:1037B00001F1010C0CF0FF013C29F6DB4FF0140C79
:1037C000B7FBFCFC1FFA8CF032B0BDE8F081F0B51D
:1037D0008D48007820B101287ED002287DD1EEE20C
:1037E0008A480078002879D1884840780028FAD1A2
:1037F000002440F219524FF483712046FFF797FFDF
:1038000005468348005D40B92A4664212046FFF7FB
:103810007AFF054601207E4908557E48035D7E48B3
:10382000015D2A462046FFF74CFF054601207849F6
:1038300008557848005D401C764908550846005DEB
:103840007549095D884202DB0020724908557348BA
:103850000580012440F219524FF483712046FFF78E
:1038600066FF05466A48005D40B92A466421204645
:10387000FFF749FF05460120654908556548035D86
:103880006548015D2A462046FFF71BFF05460120DB
:103890005F4908555F48005D401C5E490855084671
:1038A000005D5D49095D884202DB002059490855E9
:1038B0005B4805805B48008858490988884203DADC
:1038C0005648008857490880564840885449098816
:1038D000884207DA524802E00EE16FE23CE00088DD
:1038E0005049488050480088B0F57F4F08DA4E486C
:1038F00000884C490988884202DA00204B49088038
:1039000049484088B0F57F4F08DA47480088454964
:103910004988884202DA0020444948803F480078BC
:10392000434908703D480088000A48703D480078C7
:1039300088703C480088000AC870394800780871CF
:1039400037480088000A48713648807888713548C1
:103950004088000AC871CEE0002440F29C52002149
:103960002046FFF7E4FE05462948005D40B92A4697
:1039700064212046FFF7C7FE05460120244908556B
:103980002448035D2448015D2A462046FFF799FE3E
:10399000054601201E4908551E48005D401C1D4972
:1039A00008550846005D1C49095D884202DB00207D
:1039B00018490855194805800088642802DA002053
:1039C000164908801748008814490988884203DA94
:1039D0001248008813490880104800881049088060
:1039E00010484088098825E0150100207700002054
:1039F0009D000020B400002034060020184C002058
:103A0000C40800203E0000209C0000200C01002083
:103A10001F0100201B01002017010020A40000202E
:103A2000A6000020A8000020DE000020004C00209E
:103A3000084C0020884203DAFE480088FE4948808E
:103A4000FE48007848B90020FD4908704870887029
:103A5000C870087148718871C871F84800780128E9
:103A600022D1F8480088B0F57F4F09DAF548008880
:103A7000F1490988884203DA0820F3490880488020
:103A8000F2480078EE490870F0480088000A487053
:103A9000E94800788870E8480088000AC87000206B
:103AA000087148718871C871E4480078022822D1F1
:103AB000E4484088B0F57F4F09DAE2484088DE49A3
:103AC0004988884203DA0820DF49088048800020BE
:103AD000DB49087048708870C870D6480078087153
:103AE000D4480088000A4871D34880788871D24849
:103AF0004088000AC87117E2D548807800287CD138
:103B0000D348C0780028FAD1022440F219524FF469
:103B100083712046FFF70BFE0546CE48005D40B995
:103B20002A4664212046FFF7EEFD05460120C949DB
:103B30000855C948035DC948015D2A462046FFF77C
:103B4000C0FD05460120C3490855C348005D401C1F
:103B5000C14908550846005DC049095D884202DB3D
:103B60000020BD490855BE480580032440F2195283
:103B70004FF483712046FFF7DAFD0546B548005D36
:103B800040B92A4664212046FFF7BDFD05460120C5
:103B9000B0490855B048035DB048015D2A4620464B
:103BA000FFF78FFD05460120AA490855AA48005D88
:103BB000401CA94908550846005DA849095D88428E
:103BC00002DB0020A4490855A64805809A48808851
:103BD000A3490988884203DAA14800889649888069
:103BE0009548C0889F490988884203DA9D48008823
:103BF0009149C8809348808800E037E0B0F57F4F56
:103C000008DA904880888C498988884202DA002046
:103C10008D4988808B48C088B0F57F4F08DA894885
:103C2000C0888549C988884202DA00208649C88050
:103C30008B4800788249087289480088000A4872D7
:103C40007D48007988727C488088000AC87285485F
:103C50000078087383480088000A487376488079A2
:103C600088737548C088000AC873A7E0022440F230
:103C70009C5200212046FFF75AFD05467548005D1D
:103C800040B92A4664212046FFF73DFD0546012044
:103C9000704908557048035D7048015D2A4620460A
:103CA000FFF70FFD054601206A4908556A48005D87
:103CB000401C694908550846005D6849095D88420D
:103CC00002DB0020644908556548058000886428A7
:103CD00002DA0020624908805748808860490988D4
:103CE000884203DA5E480088534988805C4800882F
:103CF0005C4908805048C0880988884203DA5948DE
:103D000000884D49C8805848007848B900204C497F
:103D1000087248728872C872087348738873C873CF
:103D200051480078012822D146488088B0F57F4F5D
:103D300009DA4448808840498988884203DA0820A3
:103D400041498880C880464800783D490872444807
:103D50000088000A4872384800798872364880889E
:103D6000000AC8720020087348738873C8733E48FD
:103D70000078022822D13348C088B0F57F4F09DA95
:103D80003048C0882C49C988884203DA08202E4967
:103D90008880C88000202A49087248728872C872D8
:103DA0003048007808732F480088000A487322487A
:103DB000807988732048C088000AC873B4E0002066
:103DC0002A4908702A48807FFE287DD10020A3E080
:103DD000274A92F82220002A1DDD244A12780F2A51
:103DE00019DA00EB4002234B03EB420253781F4ADF
:103DF00016781278521C1D4F3A701F4A935500EBEB
:103E000040021C4B13F812303A4616781278521CB6
:103E10003A70194A9355164A92F82220012A4EDD2B
:103E2000134A92F82220032A49DC104A12780F2AFA
:103E300045DA23E0A6000020A8000020A100002011
:103E4000084C0020DE000020004C0020A4000020D0
:103E50000C0100201F0100201B0100201701002081
:103E6000B0000020B2000020A200002027010020A6
:103E700077000020E40B0020184C002000EB4002EB
:103E8000FE4B03EB4202D27800EB4003FB4E06EB05
:103E900043039B7842EA032202F5C87291B2F84AC2
:103EA00016781278521CF64F3A70F64A91550E0A5F
:103EB0003A4613781278521C3A70F24AD654F24AB3
:103EC00092F82220022A00E02DE023DDEE4A92F84B
:103ED0002220032A1EDCEA4A12780F2A1ADA00EBA3
:103EE0004002E64B03EB42025379E54A167812781A
:103EF000521CE34F3A70E34A935500EB4002DF4B0C
:103F000003EB420213793A4616781278521C3A7043
:103F1000DC4A9355421CD0B2DB4A92F82020824200
:103F20003FF756AF00E000BF00BFD8480078022836
:103F300003DB0020D549087004E0D4480078401C19
:103F4000D2490870F0BD10B50024FCE3D04830F829
:103F500014000C287ED2DFE810F00C004300BC00F7
:103F60003F0282039E031A041B041C0467047D00A5
:103F700070050020C7490855C748005D30BB1CB913
:103F80000821C648FCF7DDFF012C03D12103C448FA
:103F9000FCF7D7FF022C03D16103C148FCF7D1FF26
:103FA000032C04D14FF40051BD48FCF7CAFFBD48B3
:103FB00030F8140030B11E20BB4908550020B94923
:103FC00021F814000120B449085508E0B648005D06
:103FD000012804DBB448005D401EB34908553DE3A9
:103FE0000020AC490855B048005D002867D1AF48B3
:103FF00050F8240030B1AD4850F82400401EAB49C1
:1040000041F82400A94850F82400E8BB1CB9082155
:10401000A248FCF798FF012C03D12103A048FCF72C
:1040200092FF022C03D161039D48FCF78CFF032C07
:1040300004D14FF400519A48FCF785FF9C4850F892
:10404000240070B19A4850F824009A49884208D850
:10405000974800E0FEE350F82400401E944941F8E0
:104060002400934850F8240070B90020884921F8B2
:104070001400914830F8140000EB800040008C4997
:1040800041F824008D4800E007E030F8140000EB10
:1040900080004000854941F82400824830F814002F
:1040A000012809D001207F4921F81400002084490B
:1040B00021F81400834908550020774908557A48AB
:1040C000005D012804DB7848005D401E76490855F4
:1040D00085E701206F490855002C6CD17A48005DB6
:1040E000022868D079480078002874D16F49601C94
:1040F00051F8200000285FD100BF08216748FCF775
:1041000020FF4FF480516648FCF71DFF00BF0120DF
:104110006E49487000206C4908556D4800780228A7
:1041200004D00020664948806649487002206849EA
:1041300008705F49601C51F8200070B1601C51F894
:1041400020005C49884208D85949601C51F8200079
:10415000401E0A46611C42F821005549601C51F876
:10416000200000285DD15949487002205649085561
:104170005149601C31F8100000EB800041004C4AAE
:10418000601C42F820104D4931F8100000EB80000F
:104190004100464A601C42F8201000BF08213F48F9
:1041A000FCF7CFFE4FF480513D48FCF7CAFE00BF3C
:1041B00000204749087034E03C49601C51F8200059
:1041C00078B3601C51F82000401E0A46611C42F87A
:1041D000210026E0FFE700203C49087001203A4911
:1041E0000855354830F8140000EB80004000304995
:1041F00041F82400314830F8140000EB8000400002
:104200002A4941F8240000BF08212448FCF799FE00
:104210004FF480512248FCF794FE00BF00202C4947
:104220000870022C7ED12848005D02287AD02748E9
:104230008078002877D11D49601C51F820000028A3
:1042400072D100BF61031648FCF77BFE21031448BE
:10425000FCF779FE00BF01201C49C87000201A49F4
:1042600008551C480078022804D000201449C88052
:104270001449C8700220174908702DE0E40B002093
:1042800027010020184C0020770000209C0000200F
:10429000004C00200C010020BA000020001001405A
:1042A000000C0140CE000020B6000020B408002021
:1042B000F800002000F60900EE000020E6000020D3
:1042C000A80000201F01002008010020100100208C
:1042D000A1000020A2000020FE49601C51F820002F
:1042E00070B1601C51F82000FB49884208D8F94998
:1042F000601C51F82000401E0A46611C42F8210053
:10430000F449601C51F8200060B90020F349C870DE
:104310000220F3490855F349601C31F8100000EB06
:10432000800002E055E02DE01EE04100E94A601CFB
:1043300042F82010EC4931F8100000EB80004100F9
:10434000EA4A601C42F8201000BF4FF48041E84860
:10435000FCF7F7FD4FF40051E548FCF7F2FD00BF14
:104360000020E449087034E0E049601C51F8200066
:1043700078B3601C51F82000401E0A46611C42F8C8
:10438000210026E00020D54988700120D449085535
:10439000D44830F8140000EB80004000CD4941F8CB
:1043A0002400D14830F8140000EB80004000CF49D1
:1043B00041F8240000BF4FF48041CD48FCF7C1FD17
:1043C0004FF40051CA48FCF7BCFD00BF0020C949AA
:1043D0000870601CC4B202E60120C7490855002CD1
:1043E00065D1BF48005D012861D0BC484078E8BB7A
:1043F000BE4850F82400D0BB00BF0821BF48FCF7DE
:10440000A2FD4FF48051BA48FCF79BFD00BF01208C
:10441000B24908700020B2490855B948007801280F
:1044200004D00020B7490880B74908700120B4497A
:104430000870A84850F8240060B1A64850F824003D
:10444000A549884206D8A34850F82400401EA14937
:1044500041F824009F4850F8240040BB00209F49A9
:10446000087001209E4908559E4801E02CE01FE09D
:1044700030F8140000EB80004000964941F8240019
:10448000994830F8140000EB80004000974941F84B
:10449000240000BF08219948FCF753FD4FF48051D8
:1044A0009348FCF74EFD00BF00209549087034E0AA
:1044B0008E4850F8240080B38C4850F82400401EE9
:1044C0008A4941F8240028E00020844948700220ED
:1044D000834908558349601C31F8100000EB8000C7
:1044E00041007C4A601C42F820107F4931F81000DE
:1044F00000EB800041007D4A601C42F8201000BFA4
:1045000008217E48FCF71DFD4FF480517848FCF7E8
:1045100018FD00BF00207A490870022C65D1704850
:10452000005D012861D06D48C078E0BB6F4850F84D
:104530002400C8BB00BF61036D48FCF704FD2103E4
:104540006B48FCF7FEFC00BF012064498870002026
:104550006349085567480078012804D0002069495C
:10456000888069498870012062490870594850F86C
:10457000240060B1574850F824005749884206D8B3
:10458000544850F82400401E524941F82400514834
:1045900050F8240048BB0020504988700120504941
:1045A0000855504801E02DE020E030F8140000EB01
:1045B00080004000474941F824004B4830F814007F
:1045C00000EB80004000494941F8240000BF4FF44F
:1045D00080414748FCF7B5FC4FF400514448FCF7D4
:1045E000B0FC00BF00204349087035E03F4850F858
:1045F000240088B33D4850F82400401E3B4941F850
:10460000240029E000203549C870022034490855AB
:104610003449601C31F8100000EB800041002D4A45
:10462000601C42F82010304931F8100000EB800087
:1046300041002E4A601C42F8201000BF4FF4804118
:104640002B48FCF77EFC4FF400512948FCF779FC1D
:1046500000BF002027490870601CC4B228E3002076
:10466000254908551CB908212448FCF76AFC012C8F
:1046700003D121031E48FCF764FC022C03D1610323
:104680001B48FCF75EFC032C04D14FF40051184882
:10469000FCF757FC0CE3002017490855134850F865
:1046A000240060B1114850F82400401E0F4941F821
:1046B00024000020134921F81400134908550B4821
:1046C00050F82400F0BB1CB908210C48FCF73BFC57
:1046D000012C1BE0F800002000F60900100100206A
:1046E00008010020EE000020E6000020B4080020B1
:1046F000000C0140A20000200C010020001001402D
:10470000A1000020A80000201F01002003D12103E8
:10471000FE48FCF718FC022C03D16103FB48FCF7B0
:1047200012FC032C04D14FF40051F848FCF70BFCA9
:10473000F74850F8240078B1F54850F82400F549BE
:10474000884201E022E0B6E206D8F14850F82400A1
:10475000401EEF4941F82400ED4850F82400A8B964
:104760000420ED4921F81400EC4830F8140000EB67
:1047700080004000E64941F82400E94830F8140080
:1047800000EB80004000E74941F8240090E28FE20E
:104790008EE20120E4490855E448005DB8BB6CB9DD
:1047A00000BF0821E248FCF7CCFB4FF48051D7480A
:1047B000FCF7C7FB00BF0020DE490870022C0CD1BB
:1047C00000BF6103D148FCF7BCFB2103CF48FCF7D5
:1047D000B8FB00BF0020D8490870CF4830F814005B
:1047E000D64931F81410884208D01E20D449085503
:1047F000C94830F81400D14921F814000120CB49F0
:1048000008550020CF490855CF49085509E0FFE772
:10481000CB48005D012804DBC948005D401EC84943
:104820000855601CC4B243E20120BF490855C34883
:1048300030F814000B2826D17CB900BF0821BC48F1
:10484000FCF77FFB4FF48051B048FCF77AFB00BFC8
:10485000002000E02BE2B7490870022C0CD100BF09
:104860006103AA48FCF76DFB2103A848FCF769FB2C
:1048700000BF0020B04908703220B1490855092016
:10488000AE4921F81400AE48005D00287ED1AE4844
:10489000005D18B1AB48005D022877D1F4BBAB488E
:1048A000005D012850D000BF0821A148FCF74BFB58
:1048B0004FF480519548FCF744FB00BF9F4830F807
:1048C0001400092803D009209C4921F814009948B4
:1048D0000078012804D000209D4908809D49087077
:1048E0000120944908708A4850F8240060B1884833
:1048F00050F824008749884206D8854850F824009B
:10490000401E834941F82400814850F8240028B90A
:1049100000BF08218648FCF714FB00E014E04FF4C8
:1049200080517A48FCF70DFB00BF002081490870D8
:10493000012086490855794830F8140000EB8000C2
:104940004000734941F82400022C54D17F48005D97
:10495000012850D000BF61036C48FCF7F4FA210332
:104960006A48FCF7EEFA00BF744830F814000928D2
:1049700003D00920714921F814006F4800780128FC
:1049800006D0002072498880724900E03CE08870BF
:104990000120694908705E4850F8240060B15C4805
:1049A00050F824005B49884206D8594850F8240042
:1049B000401E574941F82400554850F82400D0B90A
:1049C00000BF4FF480415148FCF7BBFA4FF400514F
:1049D0004E48FCF7B6FA00BF002057490870012086
:1049E0005A4908554D4830F8140000EB800040004B
:1049F000474941F8240000204C49085502205149FC
:104A000008551E20504908554D48005D012804DB1B
:104A10004B48005D401E4A4908554A48005D02283F
:104A200008D04948005D012804DB4748005D401E6E
:104A300045490855601CC4B23AE101203A4908557D
:104A40003E4830F81400092824D16CB900BF082171
:104A50003748FCF776FA4FF480512C48FCF771FA8E
:104A600000BF002033490870022C0CD100BF610345
:104A70002648FCF766FA21032448FCF762FA00BFD7
:104A800000202D49087032202D4908550B202B4954
:104A900021F814002A48005D00287DD12A48005DD5
:104AA00018B12848005D012876D16CBB2748005D0D
:104AB00002287FD000BF08211D48FCF742FA4FF4BE
:104AC00080511248FCF73FFA00BF1C4830F8140030
:104AD0000B2803D00B20194921F814001548007841
:104AE000022804D000201A4948801A494870022040
:104AF000104908700649601C51F8200028B1601C5C
:104B000051F82000034927E054E030E0000C014058
:104B1000F800002000F60900004C0020EE00002004
:104B2000E6000020B40800200C010020C200002094
:104B300000100140A1000020A2000020D6000020AB
:104B4000BE000020CA000020C6000020080100208E
:104B5000A80000201F010020884208D8F849601CE6
:104B600051F82000401E0A46611C42F82100F44919
:104B7000601C51F82000E8B900BF0821F148FCF79B
:104B8000E0F94FF48051F048FCF7DBF900BF00205A
:104B9000EE490870022000E070E0ED490855ED494B
:104BA000601C31F8100000EB80004100E44A601CFA
:104BB00042F82010022C58D1E548005D022854D05C
:104BC00000BF6103E048FCF7BCF92103DE48FCF7B5
:104BD000BAF900BFE04830F814000B2803D00B20CE
:104BE000DD4921F81400DD480078022804D00020B7
:104BF000DB49C880DB49C8700220D8490870D04919
:104C0000601C51F8200070B1601C51F82000D6499A
:104C1000884208D8CA49601C51F82000401E0A4644
:104C2000611C42F82100C649601C51F82000E0B91F
:104C300000BF4FF48041C448FCF783F94FF40051A2
:104C4000C148FCF77EF900BF0020C449087002206B
:104C5000BF490855BF49601C31F8100000EB8000C7
:104C60004100B74A601C42F820100020BF49085597
:104C70000120BF4908551E20BE490855BE48005DA9
:104C8000012804DBBC48005D401EBB490855B848FC
:104C9000005D012808D0B748005D012804DBB54855
:104CA000005D401EB3490855601CC4B200E000BF5F
:104CB00000BF601CC4B2032C7FF748A910BD10B51B
:104CC0000121AE48FCF799FE0121AD48FBF72BFB13
:104CD00010BD7CB5044604F0010000285AD0022122
:104CE000A848FCF730F920219648FCF72CF9FEF78C
:104CF00009F8FFF7E4FF7B20FCF707FA10B300BFC9
:104D000008219048FCF71DF94FF480518E48FCF7BC
:104D100018F900BF00BF4FF480418B48FCF711F930
:104D20004FF400518848FCF70CF900BF9648002169
:104D3000016041601021954800F055FC1021944815
:104D400000F051FCFCF74AFB9248007838B100F0C3
:104D500033FB4FF4FA614FF40060FDF75CFF8E48BF
:104D6000807F38B1FDF795FD40F6B8314FF48040B3
:104D7000FDF751FF4FF4FA618020FDF74CFF4FF42F
:104D80007A711020FDF747FF42F210714FF4005086
:104D9000FDF741FF20216B48FCF7C6F8C0F1010088
:104DA000C5B22A4620216748FCF7CFF804F010006E
:104DB00028B1FFF7C8F864211020FDF72CFF04F09C
:104DC0008000C0B1002075490870FEF700FD4FF467
:104DD00096718020FDF71FFF71480078FA2805DCE6
:104DE0006F480078401C6E49087004E0012000F014
:104DF0001FF900F022F904F0020038B101206949DE
:104E00000870694969480078FEF7C8FA04F00400A0
:104E1000A8B167480078401E6649087001206449BF
:104E20000870644800786149087062480278411C43
:104E30005D4800F0BFFB03210220FDF7ECFE04F407
:104E40000060E0B100205C49087000225B480178F6
:104E50005B48FEF798FA002141F20D2000F0B5FA08
:104E6000012141F20E2000F0B0FA03200090082347
:104E70000022114601905348007800F03FFB04F4F3
:104E80008050E0B14FF480512E48FCF74DF8C0F14E
:104E90000100C5B22A464FF480512A48FCF755F864
:104EA000474800F061FB4549087045494348007890
:104EB000FEF797F832214FF40060FDF7ACFE04F4E2
:104EC000804038B1FEF745F84FF496714FF48040BA
:104ED000FDF7A1FE04F4004038B101203A49087002
:104EE0003A493B480078FDF7ADFF04F48030B0B19B
:104EF00038480078401E384908700120354908704C
:104F0000354800783249087033480278411C2F48F0
:104F100000F050FB03214FF40040FDF77CFE04F449
:104F2000005060B100201E4908701C4800783228EB
:104F300054DC1A480078401C1849087053E072E0AD
:104F4000F800002000100140000C0140A1000020EA
:104F500008010020EE000020D6000020A200002062
:104F6000A80000201F01002000F60900C200002058
:104F7000CA000020C6000020BE0000200800024039
:104F80000024014000080140004C0020084C002093
:104F9000184C002014010020770000202801002078
:104FA000290100202B000020B40600205D00002015
:104FB00031000020280300202A01002039000020B1
:104FC000A8050020A00000202A000020B40700202F
:104FD0005E00002030000020A8020020012000F028
:104FE00027F800F02AF81B480078B42805DC194897
:104FF0000078401C174908700FE00120164908701E
:10500000002014490870FDF77DFE00F0D5F94FF43B
:10501000FA614FF40060FDF7FEFD42F210714FF4AB
:105020000050FDF7F8FD7CBD10B5FCF74CFD10BD40
:1050300000F0010181F3138870470848006800F40C
:10504000E06007490843001D04490860BFF3408F32
:1050500000BFFEE72A010020140100200CED00E053
:105060000000FA05F8B506460C46154604200090E7
:10507000002708E021883046FBF7DFFC0090B81CD1
:1050800087B2B61CA41CAF4203DA9DF800000428C6
:10509000F0D02846F8BD2DE9F04FA1B0064689466C
:1050A00014460025A84604200090FBF784FB4FEA35
:1050B000962A4FEA8A2AC6F3090BCBF58067BC42D1
:1050C00002D84FF001080AE0E51BC5F3090018B942
:1050D000012000EB952802E0022000EB9528002536
:1050E00005E00AEB8520FBF7A5FB00906D1C45450C
:1050F000F7D39DF80000042804D04FF0FF3021B012
:10510000BDE8F08F2246494601A800F053FA04F0AA
:10511000010010B104F1010800E0A0461FFA88F276
:1051200001A93046FFF79EFFFBF752FB2046E6E75A
:1051300010B50346002003E013F8014B0C54401C4B
:105140009042F9DB10BD0000704700EB8002910037
:1051500000E0491E0029FCD1704770B50446FA48AA
:10516000007850B30025002623E004F0800020B131
:105170008021F648FBF7E5FE03E08021F348FBF7CA
:10518000E2FE6006040E6806050E2021EF48FBF7DC
:10519000D8FE1420FFF7D9FF4021EC48FBF7B7FEFB
:1051A00008B145F001052021E848FBF7CCFE701C52
:1051B000C6B2082ED9DB284670BD00BF0221E448E4
:1051C000FCF7E7FD0028F9D02146E148FCF78EFD09
:1051D00000BF0121DE48FCF7DCFD0028F9D0DC48E7
:1051E000FCF786FDC0B2E7E710B54FF47A70D949F5
:1051F000086000BF1021D548FBF7A5FE4420FFF74B
:10520000ACFF0020FFF7A9FF04461021CF48FBF7B1
:1052100098FEFCF758FCCF480068401ECD49086056
:10522000FF2C03D0084600680028E3D1C948006875
:1052300010B90020C849087010BD70B504460D466D
:10524000FFF7D2FF1021C148FBF77DFE4420FFF796
:1052500084FF04E00020FFF780FF04F8010B280022
:10526000A5F10101CDB2F5D11021B848FBF769FED7
:1052700070BD70B504460D46FFF7B6FF1021B34868
:10528000FBF761FE03E014F8010BFFF766FF28004F
:10529000A5F10101CDB2F6D11021AC48FBF751FECA
:1052A00070BD08B534208DF8000002208DF8010093
:1052B00002216846FFF7DDFF08BD08B534208DF8F0
:1052C000000008208DF8010002216846FFF7D1FF99
:1052D00008BD38B5044620208DF8000000208DF868
:1052E00001008DF802008DF8030004216846FFF7E5
:1052F000C0FF09212046FFF7A0FF38BD2DE9FE4F72
:1053000004460D4616461F46DDE90D9ADDF830804D
:1053100013208DF800008DF801408DF802508DF8B3
:1053200003608DF804708DF805808DF806908DF877
:1053300007A008216846FFF79CFF08216846FFF791
:105340007CFFBDE8FE8F3EB5002408E0601C84B2FF
:10535000824908192946FFF78CFF601984B27F48FB
:10536000055D002DF2D100206722CDE900206023E9
:10537000612201460290FFF7C1FF3EBD01464FF496
:10538000FA5201FB02F000E0401E0028FCD17047F9
:1053900010B540217248FBF7D4FD0A20FFF7D5FE77
:1053A00040216F48FBF7CFFD10216848FBF7C9FD8E
:1053B0000A20FFF7E3FF10BD10B5FFF7E9FFFFF785
:1053C000C2FF6848FFF785FF10BD7CB504460D4657
:1053D00011208DF8000020128DF8010001208DF8B9
:1053E0000200E0B28DF803008DF8045005216846F4
:1053F000FFF73FFF7CBD38B5044612208DF8000052
:105400008DF8010002208DF802000D208DF80300B8
:1054100004216846FFF72DFF03212046FFF70DFF0B
:1054200038BD08B515208DF8000002208DF8010068
:1054300002216846FFF71DFF08BD08B515208DF84D
:10544000000001208DF8010002216846FFF711FFDE
:1054500008BD38B504460120009001216846FFF7D9
:1054600008FF08212046FFF7E8FE38BD38B504469E
:105470003320009001216846FFF7FBFE0321204600
:10548000FFF7DBFE38BD2DE9FC4105460C4616460C
:105490001F46A046FFF7C5FFFFF7CFFFFFF701FF4D
:1054A00010212A48FBF74FFD6620FFF756FE08F152
:1054B000010000F0FF082046FFF74FFE03E015F85B
:1054C000010BFFF74AFE2000A4F10101CCB2F6D196
:1054D00010211E48FBF735FD31208DF800008DF8B6
:1054E00001608DF8027000208DF803008DF80480B3
:1054F00005216846FFF7BDFEBDE8FC812DE9FC47AC
:1055000005460F4614461E46DDE90A89FFF789FF66
:10551000FFF793FF32208DF800008DF801508DF8D1
:10552000027020128DF80300E0B28DF804008DF8AF
:1055300005608DF806808DF8079008216846FFF712
:1055400098FEBDE8FC8700002C0100200008014007
:10555000003001409C020020140100202D01002099
:1055600000100140140C002070B50446FFF799FEAE
:10557000FFF73AFE10210E48FBF7E5FC7720FFF716
:10558000ECFD0020FFF7E9FD05462E4604E0002073
:10559000FFF7E3FD04F8010B2800A5F10101CDB2EE
:1055A000F5D110210248FBF7CCFC304670BD00005D
:1055B0000008014040EA01039B0703D009E008C945
:1055C000121F08C0042AFAD203E011F8013B00F8C8
:1055D000013B521EF9D27047D2B201E000F8012B14
:1055E000491EFBD270470022F6E710B513460A4663
:1055F00004461946FFF7F0FF204610BD064C074D44
:1056000006E0E06840F0010394E807009847103492
:10561000AC42F6D3FAF76EFD5459000874590008ED
:1056200070B58C1810F8015B15F0070301D110F864
:10563000013B2A1106D110F8012B03E010F8016B91
:1056400001F8016B5B1EF9D12B0705D40023521E14
:105650000DD401F8013BFAE710F8013BCB1A921C7C
:1056600003E013F8015B01F8015B521EF9D5A1427A
:10567000D8D3002070BD02E008C8121F08C1002A5C
:10568000FAD170477047002001E001C1121F002AC3
:10569000FBD1704710B5002821D0114B0022001F0C
:1056A000196803E0814203D80A4649680029F9D104
:1056B00052B11368841A9C4204D1006818441060E7
:1056C000104602E0506000E0186039B102680B1A21
:1056D000934203D10B681A4402604968416010BDCF
:1056E000A0020020F0B50B30154D20F0070100247A
:1056F000144A0FE003688B420BD38B4205D95E1A24
:1057000043184768C3E9006700E04368136002C0BC
:1057100004E0021D10680028ECD12046002802D1C8
:10572000286808B10020F0BD064A07481060074A03
:10573000121A22F00702C0E9002401202860D7E7EE
:10574000A4020020A0020020240C0020200E002033
:1057500000C0C101C30302C2C60607C705C5C40411
:10576000CC0C0DCD0FCFCE0E0ACACB0BC90908C881
:10577000D81819D91BDBDA1A1EDEDF1FDD1D1CDC71
:1057800014D4D515D71716D6D21213D311D1D010E1
:10579000F03031F133F3F23236F6F737F53534F4D1
:1057A0003CFCFD3DFF3F3EFEFA3A3BFB39F9F83841
:1057B00028E8E929EB2B2AEAEE2E2FEF2DEDEC2C31
:1057C000E42425E527E7E62622E2E323E12120E0A1
:1057D000A06061A163A3A26266A6A767A56564A491
:1057E0006CACAD6DAF6F6EAEAA6A6BAB69A9A86801
:1057F00078B8B979BB7B7ABABE7E7FBF7DBDBC7CF1
:10580000B47475B577B7B67672B2B373B17170B060
:105810005090915193535292965657975595945450
:105820009C5C5D9D5F9F9E5E5A9A9B5B99595898C0
:10583000884849894B8B8A4A4E8E8F4F8D4D4C8CB0
:105840004484854587474686824243834181804020
:1058500000C1814001C0804101C0804100C1814040
:1058600001C0804100C1814000C1814001C0804130
:1058700001C0804100C1814000C1814001C0804120
:1058800000C1814001C0804101C0804100C1814010
:1058900001C0804100C1814000C1814001C0804100
:1058A00000C1814001C0804101C0804100C18140F0
:1058B00000C1814001C0804101C0804100C18140E0
:1058C00001C0804100C1814000C1814001C08041D0
:1058D00001C0804100C1814000C1814001C08041C0
:1058E00000C1814001C0804101C0804100C18140B0
:1058F00000C1814001C0804101C0804100C18140A0
:1059000001C0804100C1814000C1814001C080418F
:1059100000C1814001C0804101C0804100C181407F
:1059200001C0804100C1814000C1814001C080416F
:1059300001C0804100C1814000C1814001C080415F
:1059400000C1814001C0804101C0804100C181404F
:10595000046400007459000800000020A802000040
:1059600020560008E85A0008A8020020780F00001E
:1059700086560008412D0102030404100906070899
:10598000090204060884A24A0469188A010191895F
:105990000A011619202BFFFF04091006693D5A025F
:1059A000299A32062112FE5A041A01375A0802298E
:1059B0006F4973618910BCF0FF0F04B9B81CFFFF79
:1059C0003201916AFE18140702012701C9C3800839
:1059D00013246160671B0611A812521305111008E9
:1059E0000103600611010217013808110204230A9D
:1059F00009150D111009130814430F311509111160
:105A000005100A03053E0B1A0B1112071C8401082E
:105A1000871009021011120C080A0113303014010A
:105A200006823A3F11B314222911C2209E0D111291
:105A3000092C1F13200C12031E07061A80059A1149
:105A4000101205051120010C760C11200818018098
:105A5000080380100D20200D112009220177015D1F
:105A6000862810AF02C20B1120072C0436801D10AF
:105A700004802D2B35E22015381152521A1A932A20
:105A80002A0E1642A402D6832DAD0180FF222B4C94
:105A900003062B4E400617510A1011210C280DA2A7
:105AA0008126AF3FEEC8C7DBF20208115F0C070387
:105AB00015FC0F1729114A181C4917150811220443
:105AC00013087F163D0B112307D00C2C0E0B040C72
:105AD00073031011300C150C114008000910380D1B
